:020000040800F2
:10000000001A002079A000082523000827230008F3
:100010002B2300082F2300083323000800000000D2
:10002000000000000000000000000000372300086E
:1000300039230008000000003B2300083D2300088E
:1000400093A0000893A0000893A0000893A00008C4
:1000500093A0000893A0000893A0000893A00008B4
:1000600093A0000893A0000893A0000893A00008A4
:1000700093A0000893A0000893A0000893A0000894
:1000800093A0000893A0000893A0000893A0000884
:1000900093A0000893A0000893A0000893A0000874
:1000A00093A0000893A0000893A0000893A0000864
:1000B00093A0000893A0000893A0000893A0000854
:1000C00093A0000893A0000893A0000893A0000844
:1000D00093A00008D7BE000893A000083B98000832
:1000E00093A0000893A0000893A0000893A0000824
:1000F00093A0000893A0000893A0000893A0000814
:1001000093A0000893A0000893A0000893A0000803
:1001100093A0000893A0000893A0000893A00008F3
:1001200093A0000893A0000893A0000893A00008E3
:1001300093A0000893A0000893A0000893A00008D3
:1001400093A0000893A0000893A0000893A00008C3
:1001500093A0000893A0000893A0000893A00008B3
:1001600093A0000893A0000893A0000893A00008A3
:1001700093A0000893A0000893A0000893A0000893
:1001800093A0000893A00008DFF810D00CF064FDE5
:1001900000480047B1200008AFF30080001A00209B
:1001A00070B52DED020B6D46002409E0295D04F1C8
:1001B000500006F025FC0A200BF019FE601CC4B2AA
:1001C000042CF3DB7CBD38B56D46002406E004F159
:1001D000500006F0E9FB2855601CC4B2042CF6DB85
:1001E0009DED000ADFEDFE0AB4EEE00AF1EE10FA32
:1001F0000FD39DED000ADFEDFB0AB4EEE00AF1EE4D
:1002000010FA06DC9DED000AB4EE400AF1EE10FA99
:1002100002D0B7EE000A38BD9DED000AFBE770B5CD
:100220000546002409E0295D04F1600006F0E8FBC2
:100230000A200BF0DCFD601CC4B2285D08B11F2C45
:10024000F1DB04F16000002106F0DAFB0A200BF07C
:10025000CEFD70BD70B505460026602006F0A4FBFB
:100260000446FF2C00D024B9DF4928460BF0BDFE20
:1002700070BD2C70012609E006F1600006F094FBC9
:100280000446AC5504B903E0701CC6B21F2EF3DB64
:1002900000BF0020E87700BFEAE70EB5D34800684A
:1002A0000090D248001D00680190D04808300068D6
:1002B0000290029883B20098020CCDA1CA480CF0BB
:1002C000D7FE0EBD70B58AB005460C46CCA103C959
:1002D000CDE908010026132120460BF048FE2846F0
:1002E00009F09CF82B4608AA0421602009F0CFF8F9
:1002F000D8B904A9042009F001F9B0B9694605206C
:1003000009F0FCF888B9002003E004A9095C215435
:10031000401C1028F9DB9DF8001021749DF8011095
:1003200061740021A174012600BF0821084608F06D
:10033000A9FE30460AB070BDF8B504460D46164613
:100340001F464FF2DE703B4632462946009020465B
:1003500005F0AEFC44F64920AB4908803B463246E6
:100360002946204605F053FDF8BD2DE9FF5F044600
:100370000D4616461F46DDF84090DDF838803B46B6
:10038000324629462046CDF8008005F091FC44F61F
:1003900049209D4908803B4632462946204605F0C3
:1003A00036FD99490F9808809848A0F80080484683
:1003B0000BF006FEC000A6EB040B0BEBDB7104EBAD
:1003C0006101A1EB500080B2039000201021A7EB47
:1003D000050ACDE9009102900AEBDA7005EB6000A6
:1003E000083881B2301B82B21023039806F077F8E8
:1003F000BDE8FF9F30B58BB0002002F034FD4FF612
:10040000FF7081490880002080490880182180A25F
:100410000B46CDE900210290F022A021502006F0E9
:100420005EF8002447E044F64920774908804FF4FD
:1004300082734FF48C72F021282005F0E8FCEC2048
:100440006043642190FBF1F02A3085B243F298407A
:100450004FF481732A46F22100902A2005F028FCEF
:1004600022466FA103A80CF003FE4FF6FF70664909
:1004700008800020102103AA0B46CDE9002102903C
:10048000C8224FF487713C2006F029F844F6492031
:100490005D49088000201021534A0B46CDE9002118
:1004A0000290C8224FF4D271502006F018F819209B
:1004B0000BF09DFCA41C642CB5DD4FF496700BF082
:1004C00096FC0BB030BD0146B1F5FA7F01DC00208F
:1004D000704740F6AC50814201DB6420F8E7A1F59B
:1004E000FA706422504340F6B83290FBF2F0C0B28A
:1004F000EEE72DE9F0412DED048BB0B009F030FAB4
:10050000062804D030B0BDEC048BBDE8F08109F0C2
:10051000F4F8054609F0FBF880464046FFF7D3FFA4
:10052000044645480078012800D100E00020064636
:10053000414890ED0B8AF8EE480A9FED401A80EE94
:10054000810A3F48D0ED000A60EE208A3D480078DD
:1005500010B93D48007808B1012000E000200746AE
:1005600018EE900A0CF01CF941EC190B06978DED72
:10057000049B314890F83100CDE9015400908DED95
:10058000038A2D4890F83030324630A118A80CF07C
:100590006FFD3D480068401C3B490860124A3BA182
:1005A00008A80CF065FD18A908A809F0DCF900BF3F
:1005B000A8E7F8B509F0D4F9064638480088283885
:1005C00085B20A244FF6FF700F49088042F64510A5
:1005D0000E490880314900900988491E8AB25FE0BF
:1005E0000AD7233C00007A44E0000020107AFF1F65
:1005F000536561745F25303458253034580000004D
:10060000FFFFFFFFFFFF000040000020420000202E
:10061000D6C7C4DCCDF8B0C9D6D5B6CB0000000033
:1006200053797374656D204C6F6164696E672E2E0B
:100630002E20253364252500200100200000704273
:10064000000000201400002015000020733D313B05
:1006500069753D25643B70633D25643B6C743D25A5
:10066000643B686D3D25643B736D3D25643B73655C
:10067000633D256C753B6665653D252E32663B61A5
:100680006C3D256400000000200000206E6574624F
:1006900061722F25732F73746174650094010020BB
:1006A000FE490988463988B21E23002105F000FB67
:1006B000062E2CD14FF6FF70009004F10E0083B28D
:1006C000A81D82B204F1080081B2284605F0F0FAB4
:1006D0004FF6FF7004F10E07BBB205F10E07BAB278
:1006E000271DB9B205F108070090B8B205F0E0FA8D
:1006F0004FF6FF7004F10E018BB205F116018AB2BC
:10070000891F009088B2214605F0D2FA43E0012EFD
:1007100029DD4FF6FF70009004F10E0083B2A81D92
:1007200082B204F1080081B2284605F0C1FA4FF602
:10073000FF7004F10E07BBB205F10E07BAB2271D18
:10074000B9B205F108070090B8B205F0B1FA04F1AA
:100750000E018BB205F116018AB2891F88B22146BB
:1007600005F055FB17E04EF22830CD49088004F122
:100770000F0083B205F10F0082B22146284605F032
:10078000EEFA05F10F0082B204F10F0081B22346A8
:10079000284605F0E4FA0020C14908804FF6FF70B2
:1007A000C0490880F8BD01461E2901DABEA0704785
:1007B0003C2901DABDA0FAE7502901DABCA0F6E72E
:1007C000BDA0F4E7F0B587B004460F4615464FF2DA
:1007D000DE70B4490880009004F1100083B2FA2260
:1007E0002146782005F064FA87B14EF22830AC49F2
:1007F000088000201021B2A20B46CDE90021029012
:1008000064222146782005F06AFE0FE042F66C6013
:10081000A349088000201021ACA20B46CDE900219D
:10082000029064222146782005F059FE4FF2DE70D6
:10083000009004F1240083B2103881B24FF48C721E
:10084000782005F035FA2A46A2A103A80CF010FC86
:1008500000209349088003A81021CDE9001004F17D
:10086000140081B210235022782005F07CFC284629
:10087000FFF799FF06463C2D04DD4EF228308849EB
:10088000088003E042F66C60854908800020102152
:10089000CDE90061029004F1140081B210236422BA
:1008A000B42005F01CFE4FF6FF707E49088007B0AB
:1008B000F0BD70B504460D462A4621464FF49270AD
:1008C000FFF780FF70BD70B504460D462A462146ED
:1008D0008E20FFF777FF70BD3EB58048007800B9E5
:1008E0003EBD4FF4A0734FF4967240F209111420EC
:1008F000FFF722FD4EF22830694908804FF2DE7082
:10090000684908800020102175A20B46CDE900211E
:100910000290B42240F213111E2005F0E0FD76A1F2
:1009200077480BF02FFB044664B1002010210B46E2
:10093000C822CDE90041029040F227111E2005F0A7
:10094000CEFD0CE0002010216D4A0B46CDE90021C0
:100950000290C82240F227111E2005F0C0FDAFF220
:1009600064304FF6FF714EF2283240F23113CDE978
:10097000002102904FF4917240F213114FF48270F3
:10098000FFF7F3FC00BFABE700B52DED028B93B092
:100990004FF6FF7002F067FA42F6451000903F48AC
:1009A0000088401E82B223230021084605F080F90A
:1009B0004FF6FF703A49088042F6451039490880E1
:1009C000002018214F4ACDE90021029033480088C9
:1009D0005A3882B20B4608210A2005F080FDFFF745
:1009E000E8FD2E4800880A3882B278232D210A209B
:1009F000FFF7A2FC00202A4908804FF2DE70294947
:100A000008804148007801281CD1002010213FA215
:100A1000CDE90021029021480088283882B20B4697
:100A20003721142005F05BFD002010213EA20B466B
:100A3000CDE9002102904FF48C725A21142005F068
:100A40004EFDA6E0002010213BA2CDE9002102903E
:100A500012480088283882B20B463721142005F04E
:100A60003EFD3C4800680BF09BFE41EC180B53EC3C
:100A7000182B39A103A80CF0FBFA0020102103AABF
:100A8000CDE90021029005480088283882B20B4643
:100A90004B21142005F023FD68E0000094010020A4
:100AA0004000002042000020D3C50000C1BC00006F
:100AB000BEAFB8E600000000CEA3CFD50000000016
:100AC000BCECB2E2B5BDD3D0C8CB0000CEDEC8CB03
:100AD00000000000253364252500000029000020C7
:100AE000D0C2BFA8CEB4B0F3B6A821C7EBC8A5CE7C
:100AF000A2D0C5D7A2B2E100B0F3B6A8C2EB000005
:100B0000540100200001002028000020B5B1C7B02A
:100B1000C4A3CABD3A205BC3C5BDFBB0B2C8ABC459
:100B2000A3CABD5D00000000C7EBCBA2CAB5C3FBE2
:100B3000BFA8BFAAC3C50000B5B1C7B0C4A3CABD92
:100B40003A205BC9CFBBFABCC6B7D1C4A3CABD5D4E
:100B50000000000000000020B1EAD7BCB7D1C2CA33
:100B60003A20252E3266D4AA2FB7D60043F29840F9
:100B7000F949088000201021F8A2CDE90021029057
:100B8000FD480088283882B20B465F21142005F00A
:100B9000A6FCF94800880A3882B2BE2382210A20C6
:100BA000FFF7CAFB0020EC4908804FF2DE70F349E2
:100BB000088000201021F2A20B46CDE9002102900E
:100BC00050228E21142005F08AFC00201021EFA273
:100BD0000B46CDE9002102905022A221142005F0FD
:100BE0007EFCED48007808B9ECA000E0EDA044F6EA
:100BF00049214FF2DE724FF4DC73CDE900210290FF
:100C00004FF496724FF4CD71DC20FFF7AEFBE7484E
:100C1000007808B1FFF760FE13B0BDEC028B00BD99
:100C200010B50020E2490870487008460021C0F85D
:100C30000210E0A1801D0BF0D8F90020DC49886289
:100C4000C86281F8300081F8310081F8320008F084
:100C500073FD002008F07DFD002008F087FD0020D6
:100C6000D5490860D5490870D5490870D54908604C
:100C7000D5490870D5490870CC49087010BD00B539
:100C800091B0FFF7CDFF0020D1490870D14908701D
:100C9000FFF77AFED04AD1A101A80CF0E9F9D3A15F
:100CA00001A808F060FE11B000BD0EB54FF6FF7050
:100CB00002F0D9F842F645100090AF480088401E77
:100CC00082B228230021084604F0F2FF4FF6FF709D
:100CD000A149088042F64510A84908800020182143
:100CE000C54ACDE900210290A34800885A3882B253
:100CF0000B4608210A2005F0F2FBFFF75AFCDC2323
:100D00004FF4917264211E20FFF716FB4EF228303B
:100D1000914908804FF2DE70984908800020182120
:100D2000B6A20B46CDE900210290C82282216E2096
:100D300005F0D5FB0020884908801021B2A20B469F
:100D4000CDE900210290F022AA21502005F0C7FB36
:100D50000EBD0EB5964890F8310070B1B0A00021DC
:100D60004FF6C052DC23CDE9002102904FF4967279
:100D7000B4210846FFF7F9FA0DE0ACA000214FF2CC
:100D8000DE72DC23CDE9002102904FF49672B4218B
:100D90000846FFF7EAFA0EBD0EB5854890F8300018
:100DA00070B1A5A04FF6FF7142F66C62DC23CDE96D
:100DB000002102908C22B4211420FFF7D6FA0CE017
:100DC000A0A000214FF2DE72DC23CDE900210290C9
:100DD0008C22B4211420FFF7C8FA0EBD70B52DED9A
:100DE000028B8CB07248C06A3C21B0FBF1F47048B1
:100DF000C06AB0FBF1F201FB12056D4890ED0B0AE1
:100E0000F8EE400A9FED921A80EE810A9148D0EDEB
:100E1000000A20EE200A10EE106A4FF2DE705749E9
:100E2000088000204C4908804FF2DE7083234FF485
:100E3000967273210090642004F03AFF2B462246FC
:100E400085A104A80CF014F90020102104AA0B4677
:100E5000CDE900210290C8227321642005F03FFBF8
:100E60004EF228303C4908804FF2DE7097234FF451
:100E7000967287210090642004F01AFF30460BF030
:100E80008FFC41EC180B53EC182B76A104A80CF046
:100E9000EFF80020102104AA0B46CDE900210290B2
:100EA000C8228721642005F01AFB0CB0BDEC028B30
:100EB00070BD10B52DED028B8CB03D4890ED0A0A47
:100EC000B8EE400ADFED690A80EE201A11EE104AF2
:100ED0000020214908804FF2DE70284908808323D2
:100EE0004FF4967273210090642004F0E1FE2046D6
:100EF0000BF056FC41EC180B53EC182B59A104A82D
:100F00000CF0B6F80020102104AA0B46CDE9002110
:100F1000029064223721C82005F0E1FA0CB0BDEC44
:100F2000028B10BD00B589B000200B4908804FF23C
:100F3000DE70124908806F234FF496725F21009093
:100F4000642004F0B5FE1A48407820B11848407972
:100F5000174909798CE09FE040000020C7EBBDAB4A
:100F60004943BFA8B7C5D6C3D4DAB8D0D3A6C7F80B
:100F7000C9CFBBFA0000000094010020420000200D
:100F8000D7F9CEBBBCECB2E23A000000D1CCCEED3A
:100F9000C5A8B6C83A00000028000020C7D0C3C5C5
:100FA000BDFB0000C7D0D7F9CEBB00002900002050
:100FB000200100202D2D0000100000201400002032
:100FC000150000201C000020170000201600002043
:100FD0000400002005000020E00000206E6574621F
:100FE00061722F25732F636D640000006368656371
:100FF0006B6F75740000000000010020D4DDCDA3EC
:10100000B7FECEF100000000B9A4B3CCCAA6D5FD4E
:10101000D4DACEACBBA4C9E8B1B82E2E2E000000A5
:10102000B5C6B9E2D2D1BFAAC6F40000B5E3BBF79A
:10103000BFAAB5C6B9E20000B5E7C4D4D2D1BFAAF1
:10104000C6F40000B5E3BBF7BFAAB5E7C4D40000FF
:1010500000007042000000202530326C753A2530C7
:10106000326C7500252E326620D4AA000000C842DA
:10107000CDE90010FE48C3788278FEA103A80BF0EA
:10108000F7FF03A810210B46C822CDE900105F210D
:10109000642005F068F80CE000201021AFF2EC02AB
:1010A0000B46CDE900210290C8225F21642005F0A3
:1010B00016FA09B000BD0EB50020F34908804FF2C2
:1010C000DE70F24908805B234FF496724B2100904A
:1010D000642004F0EDFDE648007810B1E448407863
:1010E00068B900201021AFF234120B46CDE900217F
:1010F0000290C8224B21642005F0F1F90CE0002198
:101100001022DB48801D1346CDE901210090C82242
:101110004B21642005F0E3F90EBD0EB543F2984073
:10112000D94908804FF2DE70D849088047234FF430
:10113000967237210090642004F0BAFDCC48007804
:1011400060B900201021D2A20B46CDE90021029007
:10115000C8223721642005F0C2F90BE000201021DD
:10116000CDA20B46CDE900210290C8223721642090
:1011700005F0B5F90EBD0EB54FF6FF7001F073FE28
:1011800042F645100090C7480088401E82B22323D3
:101190000021084604F08CFD4FF6FF70BA49088024
:1011A00042F64510B949088000201821BE4ACDE911
:1011B00000210290BB4800885A3882B20B460821B1
:1011C0000A2005F08CF9FFF7F4F9B64800880A38D0
:1011D00082B2A0232D210A20FFF7AEF844F6492061
:1011E000A94908804FF2DE70A8490880002010212C
:1011F000AEA20B46CDE900210290462237211420F1
:1012000005F06DF900201021ABA20B46CDE90021BD
:10121000029046224B21142005F061F90020102194
:10122000A8A20B46CDE90021029046225F2114209E
:1012300005F055F900201021A5A20B46CDE90021AB
:10124000029046227321142005F049F90020102154
:10125000A2A20B46CDE9002102904622872114204C
:1012600005F03DF98F4800880A3882B24FF4AA731E
:101270004FF48C710A20FFF75FF800208249088044
:101280004FF2DE70814908800020102196A20B46A3
:10129000CDE90021029050224FF49271142005F004
:1012A0001EF90020102193A20B46CDE900210290E7
:1012B00050224FF49C71142005F011F975A0002103
:1012C0004FF6FF72DC23CDE9002102908C22B4217D
:1012D0001420FFF74AF86FA000214FF6FF72DC23BD
:1012E000CDE9002102904FF49672B4210846FFF731
:1012F0003CF883A04FF6FF714EF2283240F21313F0
:10130000CDE9002102904FF48272EB213C20FFF7DF
:101310002CF80EBD10B57D48007810B9FFF734FBEE
:101320001AE07A480078012810D1FFF724FFFFF770
:10133000F4FEFFF7C0FEFFF7F5FDFFF7BAFDFFF77C
:101340004DFDFFF729FDFFF704FD05E06F4800782C
:10135000032801D1FFF7A9FC10BD2DE9FE4380460B
:101360008946142450254FF48C7678274EF2283085
:10137000EB19A21929460090204604F099FC4FF67B
:10138000FF7041490880EB19A2192946204604F054
:101390003EFD05EB070CACF1020C1FFA8CF304EBDD
:1013A000060CACF1020C1FFA8CF2A91CA01C04F074
:1013B0002EFD4EF228303549088000201821CDE955
:1013C0000081029005F11E0104F128001823C822B3
:1013D00005F085F800201021CDE90091029005F17B
:1013E000460104F128001023DC2205F078F8BDE85E
:1013F000FE8308B54FF6FF7000902A4843880288A4
:1014000040881E3881B2002004F052FC08BD2DE94E
:10141000FE4306460A2423484088183885B22148EE
:101420000088143887B24FF0140842F64510009037
:1014300005EB080083B2E01982B22946204604F089
:1014400037FC4FF6FF701049088042F645100F49EF
:10145000088000201021A7F108039AB2AB1CCDE947
:101460000061029099B2201D102305F038F84FE07A
:1014700020010020253032582025303258202530D8
:101480003258202530325800400000204200002011
:10149000B4FDBBFA00000000D5FDD4DAC9CFBBFA19
:1014A000D6D000009401002000010020B5B1C7B0E3
:1014B000D7B4CCAC3A000000C9CFBBFAD3C3BBA7AA
:1014C0003A000000CAB5C3FBBFA8BAC53A00000085
:1014D000CAB5CAB1CAB1B3A43A000000D4A4B9C015
:1014E000CFFBB7D13A000000D7F9CEBBD7B4CCAC14
:1014F0003A000000CFFBB7C0D1CCCEED3A000000DF
:10150000BDE120CBE320CFC220BBFA0004000020C5
:10151000BDE8FE83F8B506460D4600240DE006EB57
:1015200044006A46FEA10AF079FD012802D1009824
:10153000285501E000202855641C042CEFDBF8BD81
:1015400070B594B09FEDF80A8DED130AF748007856
:10155000B8B10020F5490870FEF74CFFFFF760FBBB
:101560000020F3490870F3490870FFF70DFA08F0FE
:10157000E7F9F1A0FFF74BFF0320F249087014B020
:1015800070BDF148007830B30020EF490870EF4893
:1015900090ED000AEE4880ED000A90ED000AFEF79B
:1015A000FFFDE348007810B9FFF7EEF913E0E048DB
:1015B000007801280FD1FFF7DEFDFFF7AEFDFFF742
:1015C0007AFDFFF7AFFCFFF774FCFFF707FCFFF7AE
:1015D000E3FBFFF7BEFBDF480078B0B10020DD4938
:1015E00008700120DC4981F832000020DB490870D6
:1015F000DB4908700320CE490870FFF756FBD9A0DD
:10160000FFF705FF0320CF490870DA48007878B16A
:101610000020D8490870D04981F83200C4490870C8
:10162000FFF7B2F9D4A0FFF7F2FE0320C549087016
:10163000D648007880B10020D44908700120C649FE
:1016400081F8300008F078F8B9480078012801D115
:10165000FFF7A2FBFEF74DFFCD48007878B10020E0
:10166000CB490870BC4981F8300008F065F8B048F3
:101670000078012801D1FFF78FFBFEF73AFFC5483C
:10168000007880B10020C34908700120B24981F878
:10169000310008F05EF8A6480078012801D1FFF774
:1016A00058FBFEF726FFBC48007878B10020BA4905
:1016B0000870A94981F8310008F04BF89C4800787F
:1016C000012801D1FFF745FBFEF713FFB34800786F
:1016D00040B10020B14908709F480078012801D12D
:1016E000FFF7CDFAAE480078002861D00020AC4961
:1016F00008700B22ABA1AE480AF080FC80BB202111
:10170000AC480AF034FC1F22A9490B31A9480AF061
:101710004BFCA848FEF783FD4FF6FF70A6490880F2
:1017200042F64510A54908800090A54800885A381F
:1017300082B2202308210A2004F0BAFA00201821DE
:101740009C4ACDE9002102909D4800885A3882B217
:101750000B4608210A2004F0C2FEFEF72AFF0EE71E
:10176000FFE798A192480AF00DFCD8B101209749F3
:101770000870402196480AF0FAFB3F228C499448B1
:101780000AF012FC6A48007808B9FFF7A5F80120B2
:1017900007F0ECFF4FF4FA700AF029FB002007F085
:1017A000E5FF05E00620674908708148FFF72FFE36
:1017B00088480078002856D000208649087086495D
:1017C00008706548407838B96349891C8348FFF739
:1017D000A1FE012060494870814800685E49C862E6
:1017E00020215D48801D0AF0C2FB7E495A48801DB9
:1017F0000AF0FBFB13AA7CA17C480AF00FFC9DEDCC
:10180000130ADFED7B0A20EE200ABCEEC00A524824
:1018100080ED0A0A00206D4908704F4800780128C1
:1018200013D001204C49087081F8300081F8310054
:1018300007F082FF012007F08CFF01203C4908706F
:1018400000203C490870FFF796FCFFF766FCFFF7A5
:1018500032FCFFF767FBFFF72CFBFFF7BFFAFFF740
:101860009BFAFFF776FA63480078B0B1002061492F
:101870000870594908706048007828B15E48FFF741
:10188000C6FD05202F4908700020334948700AF032
:101890009EFA00F6B830594908604F480078B8B150
:1018A0000AF095FA56490968401A41F2883188428F
:1018B0000ED300204849087052A0FFF7A8FD03206E
:1018C000204908700AF083FA00F6B8304B490860E6
:1018D0001C480078002809DD1A480078401E194984
:1018E00008700846007808B9FFF783FD1A480078A9
:1018F000012810D10E48007801280CD11648C06A82
:10190000401C1549C8621648007820B91348007871
:1019100008B9FFF763FA07F0F0FE04467CE0000028
:101920002530327800000000000000008E0000200A
:101930000400002005000020CFB5CDB3D2D1D6D809
:10194000D6C3000016000020990000209C00002053
:10195000000000209400002020010020140000203E
:1019600015000020D2D1BDF8C8EBCEACBBA4C4A3F7
:10197000CABD000095000020CEACBBA4BDE1CAF8F2
:10198000A3ACBBD6B8B4D5FDB3A300008F00002034
:101990009000002091000020920000209300002081
:1019A000980000205359535F52454E414D453A002F
:1019B000C31300200001002040000020420000204E
:1019C00094010020CEB4B0F3B6A800002900002096
:1019D000540100209600002017000020331400203E
:1019E000A00000200314002025660000231400201E
:1019F0000000C84297000020E313002024000020CC
:101A000018000020D1E9D6A4B3ACCAB1BBF2CDF81E
:101A1000C2E7B2BBCDA8000007F079FE064630460B
:101A2000FEF751FD0546F94890F83200002855D1DF
:101A30003C2D0ADBF648007880B90120F449087093
:101A4000F4A1F7A0FFF789FC08E0F148007801282D
:101A500004D10020EE490870FFF75CFCF2480078E2
:101A6000A8BBEA48007890BB24B3F0480068401C4B
:101A700020B1EE480068401CEC490860EB48006863
:101A8000032830D3EA48007800BBEA480078E8B978
:101A90000120E7490870E84AE8A103A80BF0E8FA3A
:101AA000EAA103A807F05FFFEDA1AFF6FC70FFF716
:101AB00054FC18E0DE480078012804D10020DC49FD
:101AC0000870FFF727FC0020D84908600BE0FFE70B
:101AD0000020D7490870D549086004E00020D449A7
:101AE0000870CB490870C9480078012822D1D14834
:101AF0000078F8B91CB10020DC4908601AE0DB4826
:101B00000068401C20B1D9480068401CD7490860D3
:101B1000D64800680A280DD3C74AC8A103A80BF00D
:101B2000A7FAD3A103A807F01EFFFFF7A8F800202B
:101B3000CE490860B54890F83200A8B9B44800789A
:101B400090B9BB48007878B9B748007820B92946E1
:101B50002046FEF7B8FE07E0B3480078012803D11D
:101B600029462046FEF7A5FEFEF723FD00BF06E549
:101B70007CB504460D46E078A178CDE90010637885
:101B80002278C2A128460BF073FA7CBD70B5A4B0D0
:101B900005460E469D4890F8320038B1C0A0FFF7C8
:101BA00036FC0520C449087024B070BD9748007801
:101BB000012809D19F48007830B9C0A0FFF727FC61
:101BC0000320BD490870EFE7002405E0295D8F4838
:101BD000801C0155601CC4B2042CF7DB01208B492A
:101BE000487021A92846FFF7C3FF334621AAB6A1B2
:101BF00011A80BF03DFA07F0B3FE062827D18D4857
:101C0000007801280CD18C4AB3A101A80BF030FA5E
:101C100011A901A807F0A7FEB4A0FFF7F8FB12E096
:101C2000854AB7A101A80BF023FA11A901A807F072
:101C30009AFE0120B64908700AF0C9F8B549086053
:101C4000B5A0FFF7E4FB06209B49087005E0B8A0AB
:101C5000FFF7DDFB05209849087000BFA4E73EB5FB
:101C600004464FF482734FF4917278211E20FEF7E0
:101C700063FB0020B44908804FF2DE70B34908804E
:101C8000012C0CD100201021B1A20B46CDE900217E
:101C90000290C8229621462004F021FC0DE0022C7F
:101CA0000BD100201021AFA20B46CDE900210290FC
:101CB000C8229621462004F012FCB0A04FF6FF7116
:101CC00042F66C62F023CDE9002102908C22D221F1
:101CD0003220FEF74AFBABA000214FF6FF72F02343
:101CE000CDE9002102904FF48772D221B420FEF793
:101CF0003CFB0020944908804FF6FF709349088010
:101D00003EBD08B54FF6FF7040F2411340F22D1270
:101D10004FF484710090132003F0CAFF08BD70B522
:101D20009A4841680020884738B1984890F82000C8
:101D3000C60996488489C58A02E000260024002549
:101D4000002E60D09248007800281DD101209049D3
:101D500008703548007888BBDC2C16DDB4F5967F1A
:101D600013DAB5F5CD7F10DDB5F5DC7F0DDA31483E
:101D7000007808B9012000E000202E490870FEF725
:101D800003FEC8200AF033F891E182480078002869
:101D9000FAD0B4F5827FF7DDB4F5917FF4DAB5F5CA
:101DA0008A7FF1DBB5F5987FEEDC00207949087079
:101DB000FFF7A7FFC8200AF01AF878E1FFE71A48F2
:101DC0000078012820D1142C1FDD8C2C1DDAB42DB5
:101DD0001BDDDC2D19DA0D4890F8300040B90120E8
:101DE0000A4981F8300007F0A7FCFEF7D5FF5EE155
:101DF00001206949087002200B4908706648007884
:101E0000FFF72DFF53E14FE1FAE0C7E0200100208A
:101E100015000020D1CCCEEDB1A8BEAF000000006F
:101E2000CEA3CFD521000000040000201000002028
:101E30001400002028000020E00000206E6574627D
:101E400061722F25732F616C657274006F63637507
:101E500070795F6F7665725F313230730000000019
:101E6000C7EBCEF0D5BCD7F9210000001C00002044
:101E70006175746F5F636865636B6F75745F6E6FB8
:101E800068756D616E5F31356D696E002530325851
:101E900025303258253032582530325800000000A5
:101EA000CEACBBA4D6D0A3ACD4DDB2BBCCE1B9A937
:101EB000B7FECEF10000000016000020D2D1D4DA27
:101EC000C9CFBBFAD6D000007569643D25733B6964
:101ED000643D2573000000006E65746261722F25F9
:101EE000732F646F6F725F6361726400D1E9D6A46F
:101EF000C3C5BDFBC9EDB7DDD6D02E2E2E00000028
:101F00006E65746261722F25732F636172640000C5
:101F10001700002018000020D4C6B6CBBCF8C8A813
:101F2000D6D02C20C7EBC9D4BAF22E2E2E0000003A
:101F3000CDF8C2E7CEB4C1ACBDD3A3ACCEDEB7A85A
:101F4000D1E9D6A40000000040000020420000209B
:101F5000C8B7B6A8D2AAB9D8B1D5B5E7C4D4C2F02B
:101F6000A3BF0000C8B7B6A8D2AACFC2BBFAB2A21C
:101F7000BDE1CBE3C2F0A3BF00000000C8B720C89A
:101F8000CF000000C8A120CFFB00000054000020BB
:101F9000060000202900002005000020B42C17DDD9
:101FA000B4F5967F14DAB42D12DDDC2D10DAC148B9
:101FB00090F8310008B9012000E00020BD4981F807
:101FC000310091F8310007F0C4FBFEF7C2FE6EE06D
:101FD0003C2C6CDDB4F5827F69DAEB2D67DDB5F55D
:101FE000897F64DCB3480078012860D10220B249BF
:101FF0000870B2490870B0480078FFF730FE56E02C
:10200000AE480078022852D1322C2DDD8C2C2BDAF0
:10201000D22D29DDF02D27DAA748007801281CD120
:102020000020A44981F8300007F086FB0120A34975
:1020300008700020A0490870FFF79DF8FFF76DF8C1
:10204000FFF739F8FEF76EFFFEF733FFFEF7C6FE27
:10205000FEF7A2FEFEF77DFE29E0974800780228F1
:1020600025D1FEF70CFE22E0B42C20DDB4F5877FED
:102070001DDAD22D1BDDF02D19DA01208F490870F1
:1020800000208D490870FFF776F8FFF746F8FFF754
:1020900012F8FEF747FFFEF70CFFFEF79FFEFEF774
:1020A0007BFEFEF756FE02E000208549087070BDF9
:1020B00088B0002007904FF4A06007F0EFFFA82041
:1020C00009F054FE4FF4E13009F0B3FEFEF7E5F8F5
:1020D0007C497D4809F089FF07F0B6FA07F082FADB
:1020E00000F0D6FE04F05CFC002000F048FD04F097
:1020F00005F90546FDB14FF6FF7000F0B4FE4FF450
:1021000078407249088072A010210B464FF49672F5
:10211000CDE900100A21084604F025F871A010212D
:102120000B464FF49672CDE900101E210A2004F0F0
:102130001AF800BFFEE7FEF75DF96249624809F050
:1021400054FF04F0B0FC38B9FEF73DF86A4880ED62
:10215000000A5D48FEF77EF806F00FFEFEF760FD10
:1021600007F0EEFB00205549087053490870FEF750
:102170000BFC07F0C2FA804607F0C9FA074638465A
:10218000FEF7A1F906464D48007820B93146404691
:10219000FEF799FB03E031464046FEF78AFB09F063
:1021A00016FE5649086009F012FE5549086080E0A5
:1021B00007F0BEFD5348416800208847FFF7AFFD98
:1021C00009F005FE04465048007810B94F480078E1
:1021D00090B1384890F8320070B9C820B4FBF0F1E3
:1021E00000FB1140642803D2012007F0BFFA06E08B
:1021F000002007F0BBFA02E0002007F0B7FA2F48F2
:10220000007810BB2B480078F8B92A4890F83200C3
:10221000D8B93F480078C0B93E480068844214D914
:1022200007A807F0E5F980B102A907A8FEF74AF868
:1022300018B939A102A809F0D8FE02A907A8FFF72A
:10224000A5FC04F6B830334908602C480068201A11
:10225000B0F57A7F11D329480068201A41F28831FD
:10226000884202D92548046005E02448006800F54A
:102270007A7022490860FFF763F907F071FB0628BE
:1022800017D11F480068201AB0F57A7F11D31C4877
:102290000068201A41F28831884202D91848046047
:1022A00005E01748006800F57A7015490860FEF7E8
:1022B00020F97DE720010020050000200400002017
:1022C00006000020E0000020000100204000002067
:1022D000466F6E7420696E6974206572726F722128
:1022E00000000000506C6561736520636865636B76
:1022F00020573235515858000000002008000020B7
:102300000C000020540000201400002015000020C4
:1023100017000020240000204E4F5F49445F4441D5
:1023200054410000704700BFFEE700BFFEE700BF5A
:10233000FEE700BFFEE770477047704710B509F031
:1023400040FD10BD0CB5002001900090764800685B
:1023500040F480307449086000BF7348006800F49E
:10236000003000900198401C0190009818B9019825
:10237000B0F5A04FF1D16C48006800F4003010B106
:102380000120009001E0002000900098012846D133
:1023900065484030006840F0805063494031086033
:1023A0006248006840F44040604908605E48083078
:1023B00000685D49083108600846006840F4004044
:1023C00008600846006840F4A05008605848091F9B
:1023D0000860081F006840F08070091F086000BF97
:1023E0005148006800F000700028F9D040F20570F4
:1023F000504908604C480830006820F003004A4902
:10240000083108600846006840F00200086000BF1C
:1024100045480830006800F00C000828F8D10CBDD1
:1024200010B54548006840F47000434908603E48D4
:10243000006840F001003C49086000203A4908313A
:102440000860394800683D490840374908603C4801
:10245000091D0860081F006820F48020091F08601B
:10246000002031490C310860FFF76CFF4FF000602D
:1024700031498039086010BD70B500200022022368
:1024800000240221284D08352D6805F00C0020B1EC
:10249000042806D0082834D107E02A4D2A4E35609A
:1024A00033E02A4D284E35602FE01F4D2D1D2D683D
:1024B000C5F380541C4D2D1D2D6805F03F0154B10E
:1024C000224DB5FBF1F5184E361D3668C6F3881659
:1024D00005FB06F209E01B4DB5FBF1F5124E361D6A
:1024E0003668C6F3881605FB06F20F4D2D1D2D68C4
:1024F000C5F301456D1C6B00B2FBF3F5124E356060
:1025000003E0104D104E356000BF00BF064D08358A
:102510002D68C5F303150E4E705D0B4D2D68C5403B
:10252000094E356070BD0000003802400070004068
:1025300008544007003C024088ED00E0FFFFF6FE33
:10254000103000240024F4002C00002000127A0037
:102550003000002001B5BDF800000090BDF800007B
:10256000FE49088008BD01B5BDF800000090BDF827
:102570000000FA49891C088008BD08B5F748801C8E
:1025800000880090BDF8000008BDF44A10804FF0AC
:10259000D842A2F88010704710B504462046FFF7D5
:1025A000D9FF052009F016FCFFF7E7FF10BDEC4846
:1025B0000089EA4908807047E849891C088070470B
:1025C00030B5014601F01F04C1F34513CA0AE50204
:1025D00005EB43151544A8B230BD00BF011EA0F1A4
:1025E0000102D0B2FAD1704710B502460C46DC4861
:1025F000808841F66311884247D1D9488079A8B9CB
:10260000D7480088401E801A82B2D5494889FFF712
:10261000A1FF0020FFF7A7FF0020FFF7A4FF101283
:10262000FFF7A1FFD0B2FFF79EFF16E0CC49488923
:10263000FFF790FF1012FFF796FFD0B2FFF793FF5E
:10264000C7490988491EC1F30F20FFF78CFFC44911
:102650000978491EC8B2FFF786FFC1498889FFF78C
:1026600079FF2012FFF77FFFE0B2FFF77CFFBC4944
:102670004988491EC1F30F20FFF775FFB8498978D3
:10268000491EC8B2FFF76FFF3AE0B548808845F2AF
:102690001051884220D1B2494889FFF75BFF1012E0
:1026A000FFF761FFAE494989491C88B2FFF752FF25
:1026B000D0B2FFF758FFAA498889FFF74BFF2012D5
:1026C000FFF751FFA6498989491C88B2FFF742FFED
:1026D000E0B2FFF748FF13E0A1494889FFF73AFF4E
:1026E0001012FFF740FFD0B2FFF73DFF9C498889E9
:1026F000FFF730FF2012FFF736FFE0B2FFF733FF9E
:1027000010BD2DE9F04105460E4600240027A046E5
:1027100093480088A84203DD91484088B04202DC1B
:102720000020BDE8F08131462846FFF75DFF8C4868
:10273000808845F21051884204D14FF43850FFF799
:1027400009FF02E02E20FFF705FFFFF716FF044602
:102750008348808841F66311884201D12046E0E732
:10276000FFF70BFF04467E48808847F29671884247
:1027700001D12046D5E7FFF700FF8046E7B24FF6CC
:10278000FF7000EA0727E012C002B91240EA4110C8
:1027900040EAE820C5E700B57148808845F210514D
:1027A000884204D14FF42450FFF7D4FE02E02920E0
:1027B000FFF7D0FE00BD00B56948808845F2105192
:1027C000884204D14FF42050FFF7C4FE02E02820D5
:1027D000FFF7C0FE00BDF0B50546002400276048A5
:1027E0008079012805D15E48808841F663118842CE
:1027F00008D15B488079F0B95948808841F6631167
:10280000884218D1082D15D2DFE805F00406080A21
:102810000C0E101206250DE007250BE0042509E03B
:10282000052507E0012505E0002503E0032501E07B
:10283000022500BF00BF082D1CD2DFE805F004060A
:10284000090C0F12151800BF14E044F0800411E0C9
:1028500044F040040EE044F0C0040BE044F02004D7
:1028600008E044F0600405E044F0A00402E044F015
:10287000E00400BF00BF3A48808845F2105188420A
:1028800002D14FF4585700E036273548808849F286
:10289000413188420BD03248808847F289718842A2
:1028A00005D02F48808847F29671884201D144F0C4
:1028B000080421463846FFF768FE2948808841F61B
:1028C000631188421DD004F0200068B124480088BC
:1028D00023494988884214DA2148068840882049DB
:1028E0000880084646800CE01D4800881C4949883D
:1028F000884206DD1A48068840881949088008463B
:1029000046801748808845F21051884257D11449B3
:102910004889FFF71FFE0020FFF725FE104949896F
:10292000491C88B2FFF716FE0020FFF71CFE0C4979
:102930004989891C88B2FFF70DFE09490988491E9B
:10294000C1F30F20FFF70FFE05494989C91C88B262
:10295000FFF700FE02490978491E03E07E00006C83
:1029600094010020C8B2FFF7FEFDFE498889FFF7F9
:10297000F1FD0020FFF7F7FDFA498989491C88B26B
:10298000FFF7E8FD0020FFF7EEFDF6498989891C75
:1029900088B2FFF7DFFDF3494988491EC1F30F20D4
:1029A000FFF7E1FDEF498989C91C88B2FFF7D2FD25
:1029B000EC498978491EC8B2FFF7D5FD2DE0E949F9
:1029C0004889FFF7C7FD0020FFF7CDFD0020FFF786
:1029D000CAFDE4490988491EC1F30F20FFF7C3FD72
:1029E000E0490978491EC8B2FFF7BDFDDD49888975
:1029F000FFF7B0FD0020FFF7B6FD0020FFF7B3FDA5
:102A0000D8494988491EC1F30F20FFF7ACFDD549CD
:102A10008978491EC8B2FFF7A6FDF0BD30B504465F
:102A20000D4629462046FFF7DFFDFFF7C0FDCE48E3
:102A30000088CE49088030BD30B504460D46C948EF
:102A4000808845F21051884220D1C6494889FFF755
:102A500081FD2012FFF787FDC2494989491C88B2D0
:102A6000FFF778FDE0B2FFF77EFDBE498889FFF7EA
:102A700071FD2812FFF777FDBA498989491C88B290
:102A8000FFF768FDE8B2FFF76EFD42E0B5488088C9
:102A900041F66311884228D1B248807920B9B14803
:102AA0000088401E001B84B2AE494889FFF752FDE2
:102AB0002012FFF758FDE0B2FFF755FD2012FFF797
:102AC00052FDE0B2FFF74FFDA6498889FFF742FDAE
:102AD0002812FFF748FDE8B2FFF745FD2812FFF77F
:102AE00042FDE8B2FFF73FFD13E09E494889FFF73A
:102AF00031FD2012FFF737FDE0B2FFF734FD9949B1
:102B00008889FFF727FD2812FFF72DFDE8B2FFF7B0
:102B10002AFD944800899549891E08804FF0D840C5
:102B2000A0F8802030BD70B52DED048B0446BE208A
:102B3000FFF710FD0520FFF716FD204609F00AFEFD
:102B400041EC190B9FED8A0B53EC102B09F07FFD24
:102B500041EC180B09F00BFE85B22846FFF703FD88
:102B60000120FFF700FDFF20FFF7FDFC0020FFF72D
:102B7000FAFC0020FFF7F7FCBDEC048B70BD10B52C
:102B8000044678488471002C58D1F020754908809B
:102B90004FF4A07048800846808845F21051884262
:102BA00010D14FF430506F4908814FF428504881BC
:102BB0004FF42C5088814FF4F07008804FF4487027
:102BC00048801AE06748808841F6631188420DD139
:102BD0002C20644908812B2048812A2088814FF4C9
:102BE000F07008804FF44870488006E02C205D4962
:102BF00008812A2048812B2088815A48808845F204
:102C00001031884205D05748808847F29671884233
:102C100006D14FF4A070534908804FF4F0704880FB
:102C20005048808849F60601884258D14FF4F07028
:102C30004C4908804FF44870488050E04FF4A07031
:102C400048490880F02048800846808845F21051A5
:102C5000884210D14FF43050424908814FF4285037
:102C600048814FF42C5088814FF4487008804FF40D
:102C7000F070488020E03B48808841F6631188422C
:102C800005D03848808849F6060188420DD12C20AD
:102C9000344908812A2048812B2088814FF44870CC
:102CA00008804FF4F070488006E02C202D49088100
:102CB0002A2048812B2088812A48808845F21031BB
:102CC000884205D02748808847F29671884206D10D
:102CD0004FF4F070234908804FF4A0704880002022
:102CE000FFF779FD10BD2DE9F04104460D461E4663
:102CF000A018401E87B2A819401E1FFA80F8194874
:102D0000808841F6631188423CD1164880790128B9
:102D100038D014480088801A001B84B2A819401EBD
:102D200086B210494889FFF715FC2012FFF71BFCFB
:102D3000E0B2FFF718FCA118491EC1F30F20FFF7FE
:102D400012FCA118491EC8B2FFF70DFC054988897D
:102D5000FFF700FC2812FFF706FCE8B2FFF703FCC0
:102D6000301209E094010020400000208000006C37
:102D70006666666666660440FFF7F5FBF0B2FFF72D
:102D8000F2FB6EE0FE48808845F21051884246D141
:102D9000FB494889FFF7DEFB2012FFF7E4FBF84907
:102DA0004989491C88B2FFF7D5FBE0B2FFF7DBFB8E
:102DB000F3494989891C88B2FFF7CCFB3812FFF729
:102DC000D2FBEF494989C91C88B2FFF7C3FBF8B2AF
:102DD000FFF7C9FBEA498889FFF7BCFB2812FFF718
:102DE000C2FBE7498989491C88B2FFF7B3FBE8B207
:102DF000FFF7B9FBE2498989891C88B2FFF7AAFB72
:102E00004FEA2820FFF7AFFBDD498989C91C88B24A
:102E1000FFF7A0FB08F0FF00FFF7A5FB21E0D84972
:102E20004889FFF797FB2012FFF79DFBE0B2FFF701
:102E30009AFB3812FFF797FBF8B2FFF794FBD049E3
:102E40008889FFF787FB2812FFF78DFBE8B2FFF7B1
:102E50008AFB4FEA2820FFF786FB08F0FF00FFF708
:102E600082FBBDE8F08170B504460026C4480588A1
:102E70004088454300210846FFF7B6FBFFF797FB64
:102E800000BF02E0BF480480761CAE42FAD370BD9A
:102E900000B5A1B00020209001217A2008F0A8F907
:102EA0000121084608F0DCF94FF400401E90012093
:102EB0008DF87C0000208DF87E0002208DF87D00CA
:102EC00001208DF87F001EA9AF4807F0F3FE4CF2F9
:102ED00033701E9002208DF87C0000208DF87E005B
:102EE00003208DF87D0001208DF87F001EA9A748E2
:102EF00007F0E0FE4FF680701E9002208DF87C00F7
:102F000000208DF87E0003208DF87D0001208DF8D3
:102F10007F001EA99E4807F0CDFE4FF480501E9002
:102F200002208DF87C0000208DF87E0003208DF8B3
:102F30007D0001208DF87F001EA9964807F0BAFE9B
:102F40004FF480501E9002208DF87C0000208DF8F8
:102F50007E0003208DF87D0001208DF87F001EA9E2
:102F60008D4807F0A7FE0C220021884807F02DFFAE
:102F70000C220121854807F028FF0C2204218348F8
:102F800007F023FF0C220521804807F01EFF0C22CA
:102F900008217E4807F019FF0C2209217B4807F021
:102FA00014FF0C220A21794807F00FFF0C220E2192
:102FB000764807F00AFF0C220F21744807F005FF3E
:102FC0000C220721724807F000FF0C2208217048EC
:102FD00007F0FBFE0C2209216D4807F0F6FE0C22DB
:102FE0000A216B4807F0F1FE0C220B21684807F01C
:102FF000ECFE0C221146664807F0E7FE0C220D217C
:10300000634807F0E2FE0C220E21614807F0DDFE66
:103010000C220F215E4807F0D8FE0C2211465D48B5
:1030200007F0D3FE0C2211465B4807F0CEFE0F20BE
:103030000890002009903C200A9000200B900C90F2
:103040000D900E900920019000200290082003901E
:103050000020049005900690079006200F90002015
:103060001090119010201290002013901590149041
:10307000169017904FF480501890002019904FF43C
:1030800080401A9000201B9008A81C9001A81D9059
:103090000FA807F0C0FA0121062007F047FB3220F5
:1030A00008F0A5FED320FFF755FAFFF766FA34497A
:1030B0008880FFF762FA32498880FFF75EFA30496C
:1030C0008880084680884FF6FF7101EA00202C496D
:1030D0008880FFF752FA2A4989880843284988805E
:1030E0000846808849F2413188427DD00420FFF7AC
:1030F00031FAFFF742FA22498880FFF73EFA204969
:103100008880FFF73AFA1E498880084680884FF683
:10311000FF7101EA00201A498880FFF72EFA18494A
:1031200089880843164988800846808848F25251A9
:10313000884203D147F289701149888010488088FD
:1031400047F289718842D0D0D420FFF703FAFFF705
:1031500014FA0B498880FFF710FA09498880FFF7B5
:103160000CFA07498880084680884FF6FF7101EA0B
:10317000002003498880FFF700FA014989880DE0A3
:10318000940100208000006C00040240000C02400A
:103190000010024000140240001802400843FE499B
:1031A00088800846808845F2103188429DD0D3201F
:1031B000FFF7D0F9FFF7E1F9F7498880FFF7DDF96C
:1031C000F5498880FFF7D9F9F34988800846808857
:1031D0004FF6FF7101EA0020EF498880FFF7CDF933
:1031E000ED498988084300E095E0EB49888008466E
:1031F000808847F296718842A5D055214FF47040DF
:10320000FFF7C3F9AA214FF20100FFF7BEF95221DF
:103210004FF20200FFF7B9F908214FF20300FFF760
:10322000B4F901214FF20400FFF7AFF94FF4454024
:10323000FFF790F9FFF7A1F9D74988800846808801
:103240004FF6FF7101EA0020D34988804CF201500B
:10325000FFF780F9FFF791F9CF4989880843CE49F4
:103260008880052008F0C3FDCB488088B0F5004F6A
:1032700003D145F21050C8498880C748808845F27C
:103280001051884247D0D320FFF764F9FFF775F952
:10329000C1498880FFF771F9BF498880FFF76DF950
:1032A000BD498880084680884FF6FF7101EA0020FA
:1032B000B9498880FFF761F9B74989880843B64959
:1032C00088800846808849F60601884223D0A120DC
:1032D000FFF740F9FFF751F9AF498880FFF74DF943
:1032E000AD498880084680884FF6FF7101EA0020CA
:1032F000A9498880FFF741F9A74989880843A64969
:1033000088800846808845F26171884203D141F681
:103310006310A1498880A048808849F241318842E1
:1033200023D09D48808847F2897188421DD09A48F1
:10333000808845F21031884217D09748808845F23E
:103340001051884211D09448808841F66311884218
:103350000BD09148808847F29671884205D08E48FC
:10336000808849F6060188422CD18C48006820F0FC
:103370000F004FF02041C1F81C010846D0F81C0195
:1033800020F47060C1F81C010846D0F81C0140F020
:103390000400C1F81C018048808847F28971884286
:1033A00008D17E48006840F480604FF02041C1F8A9
:1033B0001C0107E07948006840F480604FF020412C
:1033C000C1F81C017448818875A009F041FE72485B
:1033D000808849F2413188427ED1CF20FFF7BAF888
:1033E0000020FFF7C0F8C120FFF7BDF83020FFF73D
:1033F000BAF8ED20FFF7AEF86420FFF7B4F8032029
:10340000FFF7B1F81220FFF7AEF88120FFF7ABF815
:10341000E820FFF79FF88520FFF7A5F81020FFF7B9
:10342000A2F87A20FFF79FF8CB20FFF793F8392016
:10343000FFF799F82C20FFF796F80020FFF793F894
:103440003420FFF790F80220FFF78DF8F720FFF700
:1034500081F82020FFF787F8EA20FFF77BF80020AB
:10346000FFF781F80020FFF77EF8C020FFF772F821
:103470001B20FFF778F8C120FFF76CF80120FFF759
:1034800072F8C520FFF766F83020FFF76CF830209F
:10349000FFF769F8C720FFF75DF8B720FFF763F87B
:1034A0003620FFF757F84820FFF75DF83A20FFF77E
:1034B00051F85520FFF757F8B120FFF74BF80020DF
:1034C000FFF751F81A20FFF74EF8B620FFF742F841
:1034D0000A20FFF748F800E0A4E0A220FFF743F835
:1034E000F220FFF737F80020FFF73DF82620FFF71E
:1034F00031F80120FFF737F8E020FFF72BF80F2015
:10350000FFF731F82A20FFF72EF82820FFF72BF8D5
:103510000820FFF728F80E20FFF725F80820FFF70E
:1035200022F85420FFF71FF8A920FFF71CF84320CA
:10353000FFF719F80A20FFF716F80F20FFF713F826
:103540000020FFF710F80020FFF70DF80020FFF72C
:103550000AF80020FFF707F8E120FEF7FBFF002044
:10356000FFF701F81520FEF7FEFF1720FEF7FBFF1F
:103570000720FEF7F8FF1120FEF7F5FF0620FEF703
:10358000F2FF2B20FEF7EFFF5620FEF7ECFF3C206A
:10359000FEF7E9FF05200BE0940100201C0100A0CC
:1035A000204C43442049443A25780D0A000000008D
:1035B000FEF7D9FF1020FEF7D6FF0F20FEF7D3FF4E
:1035C0003F20FEF7D0FF3F20FEF7CDFF0F20FEF794
:1035D000CAFF2B20FEF7BEFF0020FEF7C4FF00202D
:1035E000FEF7C1FF0120FEF7BEFF3F20FEF7BBFF45
:1035F0002A20FEF7AFFF0020FEF7B5FF0020FEF700
:10360000B2FF0020FEF7AFFFEF20FEF7ACFF112066
:10361000FEF7A0FF782008F0EAFB2920FEF79AFFCA
:1036200002F03ABBFE48808847F2897188427CD11B
:103630001120FEF78FFF782008F0D9FB3620FEF727
:1036400089FF0020FEF78FFF3A20FEF783FF052059
:10365000FEF789FFB220FEF77DFF0C20FEF783FF07
:103660000C20FEF780FF0020FEF77DFF3320FEF7E1
:103670007AFF3320FEF777FFB720FEF76BFF352088
:10368000FEF771FFBB20FEF765FF3220FEF76BFFF0
:10369000C020FEF75FFF0C20FEF765FFC220FEF79B
:1036A00059FF0120FEF75FFFC320FEF753FF1020F4
:1036B000FEF759FFC420FEF74DFF2020FEF753FF11
:1036C000C620FEF747FF0F20FEF74DFFD020FEF784
:1036D00041FFA420FEF747FFA120FEF744FFE020B2
:1036E000FEF738FFD020FEF73EFF0020FEF73BFF3D
:1036F0000220FEF738FF0720FEF735FF0A20FEF70D
:1037000032FF2820FEF72FFF3220FEF72CFF442047
:10371000FEF729FF4220FEF726FF0620FEF723FFD3
:103720000E20FEF720FF122000E056E0FEF71BFF00
:103730001420FEF718FF1720FEF715FFE120FEF713
:1037400009FFD020FEF70FFF0020FEF70CFF02203C
:10375000FEF709FF0720FEF706FF0A20FEF703FF2A
:103760002820FEF700FF3120FEF7FDFE5420FEF773
:10377000FAFE4720FEF7F7FE0E20FEF7F4FE1C20AF
:10378000FEF7F1FE1720FEF7EEFE1B20FEF7EBFE24
:103790001E20FEF7E8FE2A20FEF7DCFE0020FEF7E2
:1037A000E2FE0020FEF7DFFE0020FEF7DCFEEF2049
:1037B000FEF7D9FE2B20FEF7CDFE0020FEF7D3FE4C
:1037C0000020FEF7D0FE0120FEF7CDFE3F20FEF7E1
:1037D000CAFE2920FEF7BEFE22E79148808845F206
:1037E0001031884240F07C87ED20FEF7B3FE0120C7
:1037F000FEF7B9FEFE20FEF7B6FEEE20FEF7AAFEAB
:10380000DE20FEF7B0FE2120FEF7ADFEF120FEF730
:10381000A1FE0120FEF7A7FEDF20FEF79BFE102091
:10382000FEF7A1FEC420FEF795FE8F20FEF79BFE5B
:10383000C620FEF78FFE0020FEF795FEE220FEF781
:1038400092FEE220FEF78FFEE220FEF78CFEBF2004
:10385000FEF780FEAA20FEF786FEB020FEF77AFE75
:103860000D20FEF780FE0020FEF77DFE0D20FEF706
:103870007AFE0020FEF777FE1120FEF774FE00208E
:10388000FEF771FE1920FEF76EFE0020FEF76BFEBC
:103890002120FEF768FE0020FEF765FE2D20FEF7D2
:1038A00062FE0020FEF75FFE3D20FEF75CFE00207A
:1038B000FEF759FE5D20FEF756FE0020FEF753FE90
:1038C0005D20FEF750FE0020FEF74DFEB120FEF712
:1038D00041FE8020FEF747FE0020FEF744FE8B20CD
:1038E000FEF741FE0020FEF73EFE9620FEF73BFE6F
:1038F0000020FEF738FEB220FEF72CFE0020FEF777
:1039000032FE0020FEF72FFE0220FEF72CFE0020E4
:10391000FEF729FE0320FEF726FE0020FEF723FE19
:10392000B320FEF717FE0020FEF71DFE0020FEF775
:103930001AFE0020FEF717FE0020FEF714FE0020FE
:10394000FEF711FE0020FEF70EFE0020FEF70BFE34
:103950000020FEF708FE0020FEF705FE0020FEF71F
:1039600002FE0020FEF7FFFD0020FEF7FCFD002018
:10397000FEF7F9FD0020FEF7F6FD0020FEF7F3FD4F
:103980000020FEF7F0FD0020FEF7EDFD0020FEF721
:10399000EAFD0020FEF7E7FD0020FEF7E4FD002031
:1039A000FEF7E1FD0020FEF7DEFD0020FEF7DBFD67
:1039B0000020FEF7D8FDB420FEF7CCFD8B20FEF7EB
:1039C000D2FD0020FEF7CFFD9620FEF7CCFD0020B3
:1039D000FEF7C9FDA120FEF7C6FD0020FEF7C3FDDE
:1039E000B520FEF7B7FD0220FEF7BDFD0020FEF773
:1039F000BAFD0320FEF7B7FD0020FEF7B4FD04205A
:103A0000FEF7B1FD0020FEF7AEFDB620FEF7A2FDE9
:103A10000020FEF7A8FD0020FEF7A5FDB72001E07D
:103A200094010020FEF796FD0020FEF79CFD00208B
:103A3000FEF799FD3F20FEF796FD0020FEF793FD6F
:103A40005E20FEF790FD0020FEF78DFD6420FEF75E
:103A50008AFD0020FEF787FD8C20FEF784FD002004
:103A6000FEF781FDAC20FEF77EFD0020FEF77BFD1A
:103A7000DC20FEF778FD0020FEF775FD7020FEF7D4
:103A800072FD0020FEF76FFD9020FEF76CFD002018
:103A9000FEF769FDEB20FEF766FD0020FEF763FDF3
:103AA000DC20FEF760FD0020FEF75DFDB820FEF78C
:103AB00051FD0020FEF757FD0020FEF754FD0020C9
:103AC000FEF751FD0020FEF74EFD0020FEF74BFDF6
:103AD0000020FEF748FD0020FEF745FD0020FEF720
:103AE00042FDBA20FEF736FD2420FEF73CFD002003
:103AF000FEF739FD0020FEF736FD0020FEF733FD0E
:103B0000C120FEF727FD2020FEF72DFD0020FEF747
:103B10002AFD5420FEF727FD0020FEF724FDFF209C
:103B2000FEF721FD0020FEF71EFDC220FEF712FD6C
:103B30000A20FEF718FD0020FEF715FD0420FEF711
:103B400012FD0020FEF70FFDC320FEF703FD3C2011
:103B5000FEF709FD0020FEF706FD3A20FEF703FD03
:103B60000020FEF700FD3920FEF7FDFC0020FEF7E7
:103B7000FAFC3720FEF7F7FC0020FEF7F4FC3C20AF
:103B8000FEF7F1FC0020FEF7EEFC3620FEF7EBFC22
:103B90000020FEF7E8FC3220FEF7E5FC0020FEF7EF
:103BA000E2FC2F20FEF7DFFC0020FEF7DCFC2C20DF
:103BB000FEF7D9FC0020FEF7D6FC2920FEF7D3FC47
:103BC0000020FEF7D0FC2620FEF7CDFC0020FEF7FB
:103BD000CAFC2420FEF7C7FC0020FEF7C4FC24200A
:103BE000FEF7C1FC0020FEF7BEFC2320FEF7BBFC65
:103BF0000020FEF7B8FC3C20FEF7B5FC0020FEF7E5
:103C0000B2FC3620FEF7AFFC0020FEF7ACFC322001
:103C1000FEF7A9FC0020FEF7A6FC2F20FEF7A3FC70
:103C20000020FEF7A0FC2C20FEF79DFC0020FEF7F4
:103C30009AFC2920FEF797FC0020FEF794FC262032
:103C4000FEF791FC0020FEF78EFC2420FEF78BFC93
:103C50000020FEF788FC2420FEF785FC0020FEF7FC
:103C600082FC2320FEF77FFC0020FEF77CFCC420B2
:103C7000FEF770FC6220FEF776FC0020FEF773FC76
:103C80000520FEF770FC0020FEF76DFC8420FEF797
:103C90006AFC0020FEF767FCF020FEF764FC0020C1
:103CA000FEF761FC1820FEF75EFC0020FEF75BFCCF
:103CB000A420FEF758FC0020FEF755FC1820FEF764
:103CC00052FC0020FEF74FFC5020FEF74CFC002079
:103CD000FEF749FC0C20FEF746FC0020FEF743FCF3
:103CE0001720FEF740FC0020FEF73DFC9520FEF774
:103CF0003AFC0020FEF737FCF320FEF734FC0020EE
:103D0000FEF731FCE620FEF72EFC0020FEF72BFC30
:103D1000C520FEF71FFC3220FEF725FC0020FEF731
:103D200022FC4420FEF71FFC0020FEF71CFC65204F
:103D3000FEF719FC0020FEF716FC7620FEF713FCB8
:103D40000020FEF710FC8820FEF70DFC0020FEF797
:103D50000AFCC620FEF7FEFB2020FEF704FC002034
:103D6000FEF701FC1720FEF7FEFB0020FEF7FBFB31
:103D70000120FEF7F8FB0020FEF7F5FBC720FEF759
:103D8000E9FB0020FEF7EFFB0020FEF7ECFB002034
:103D9000FEF7E9FB0020FEF7E6FBC820FEF7DAFBA2
:103DA0000020FEF7E0FB0020FEF7DDFB0020FEF721
:103DB000DAFB0020FEF7D7FBC920FEF7CBFB002083
:103DC000FEF7D1FB0020FEF7CEFB0020FEF7CBFB79
:103DD0000020FEF7C8FB0020FEF7C5FB0020FEF721
:103DE000C2FB0020FEF7BFFB0020FEF7BCFB00205B
:103DF000FEF7B9FB0020FEF7B6FB0020FEF7B3FB91
:103E00000020FEF7B0FB0020FEF7ADFB0020FEF720
:103E1000AAFB0020FEF7A7FB0020FEF7A4FBE02092
:103E2000FEF798FB1620FEF79EFB0020FEF79BFB9B
:103E30001C20FEF798FB0020FEF795FB2120FEF7E3
:103E400092FB0020FEF78FFB3620FEF78CFB002054
:103E5000FEF789FB4620FEF786FB0020FEF783FB7A
:103E60005220FEF780FB0020FEF77DFB6420FEF76A
:103E70007AFB0020FEF777FB7A20FEF774FB002028
:103E8000FEF771FB8B20FEF76EFB0020FEF76BFB4D
:103E90009920FEF768FB0020FEF765FBA820FEF7DF
:103EA00062FB0020FEF75FFBB920FEF75CFB002001
:103EB000FEF759FBC420FEF756FB0020FEF753FB2C
:103EC000CA20FEF750FB0020FEF74DFBD220FEF784
:103ED0004AFB0020FEF747FBD920FEF744FB0020F9
:103EE000FEF741FBE020FEF73EFB0020FEF73BFB28
:103EF000F320FEF738FB0020FEF735FBE120FEF74C
:103F000029FB1620FEF72FFB0020FEF72CFB1C20C0
:103F1000FEF729FB0020FEF726FB2220FEF723FBFD
:103F20000020FEF720FB3620FEF71DFB0020FEF7E9
:103F30001AFB4520FEF717FB0020FEF714FB52206A
:103F4000FEF711FB0020FEF70EFB6420FEF70BFBD3
:103F50000020FEF708FB7A20FEF705FB0020FEF7A5
:103F600002FB8B20FEF7FFFA0020FEF7FCFA9920F7
:103F7000FEF7F9FA0020FEF7F6FAA820FEF7F3FAAA
:103F80000020FEF7F0FAB920FEF7EDFA0020FEF768
:103F9000EAFAC420FEF7E7FA0020FEF7E4FACA20A6
:103FA000FEF7E1FA0020FEF7DEFAD220FEF7DBFA98
:103FB0000020FEF7D8FAD820FEF7D5FA0020FEF749
:103FC000D2FAE020FEF7CFFA0020FEF7CCFAF32079
:103FD000FEF7C9FA0020FEF7C6FAE220FEF7BAFAA9
:103FE0000520FEF7C0FA0020FEF7BDFA0B20FEF711
:103FF000BAFA0020FEF7B7FA1B20FEF7B4FA002049
:10400000FEF7B1FA3420FEF7AEFA0020FEF7ABFA65
:104010004420FEF7A8FA0020FEF7A5FA4F20FEF78D
:10402000A2FA0020FEF79FFA6120FEF79CFA00201A
:10403000FEF799FA7920FEF796FA0020FEF793FA38
:104040008820FEF790FA0020FEF78DFA9720FEF701
:104050008AFA0020FEF787FAA620FEF784FA0020ED
:10406000FEF781FAB720FEF77EFA0020FEF77BFA12
:10407000C220FEF778FA0020FEF775FAC720FEF797
:1040800072FA0020FEF76FFAD120FEF76CFA0020DA
:10409000FEF769FAD620FEF766FA0020FEF763FA0B
:1040A000DD20FEF760FA0020FEF75DFAF320FEF750
:1040B0005AFA0020FEF757FAE320FEF74BFA0520E4
:1040C000FEF751FA0020FEF74EFA0A20FEF74BFAEF
:1040D0000020FEF748FA1C20FEF745FA0020FEF704
:1040E00042FA3320FEF73FFA0020FEF73CFA442064
:1040F000FEF739FA0020FEF736FA5020FEF733FAC1
:104100000020FEF730FA6220FEF72DFA0020FEF7BD
:104110002AFA7820FEF727FA0020FEF724FA8820F2
:10412000FEF721FA0020FEF71EFA9720FEF71BFA91
:104130000020FEF718FAA620FEF715FA0020FEF779
:1041400012FAB720FEF70FFA0020FEF70CFAC22091
:10415000FEF709FA0020FEF706FAC720FEF703FA79
:104160000020FEF700FAD120FEF7FDF90020FEF74F
:10417000FAF9D520FEF7F7F90020FEF7F4F9DD2073
:10418000FEF7F1F90020FEF7EEF9F320FEF7EBF968
:104190000020FEF7E8F9E420FEF7DCF90120FEF745
:1041A000E2F90020FEF7DFF90120FEF7DCF900203C
:1041B000FEF7D9F90220FEF7D6F90020FEF7D3F971
:1041C0002A20FEF7D0F90020FEF7CDF93C20FEF7BB
:1041D000CAF90020FEF7C7F94B20FEF7C4F900200A
:1041E000FEF7C1F95D20FEF7BEF90020FEF7BBF92E
:1041F0007420FEF7B8F90020FEF7B5F98420FEF729
:10420000B2F90020FEF7AFF99320FEF7ACF90020D9
:10421000FEF7A9F9A220FEF7A6F90020FEF7A3F900
:10422000B320FEF7A0F90020FEF79DF9BE20FEF7AF
:104230009AF90020FEF797F9C420FEF794F90020C0
:10424000FEF791F9CD20FEF78EF90020FEF78BF9ED
:10425000D320FEF788F90020FEF785F9DD20FEF770
:1042600082F90020FEF77FF9F320FEF77CF90020A9
:10427000FEF779F9E520FEF76DF90020FEF773F9F6
:104280000020FEF770F90020FEF76DF90020FEF720
:104290006AF90220FEF767F90020FEF764F9292089
:1042A000FEF761F90020FEF75EF93C20FEF75BF9AE
:1042B0000020FEF758F94B20FEF755F90020FEF7D5
:1042C00052F95D20FEF74FF90020FEF74CF97420FB
:1042D000FEF749F90020FEF746F98420FEF743F97E
:1042E0000020FEF740F99320FEF73DF90020FEF78D
:1042F0003AF9A220FEF737F90020FEF734F9B3208F
:10430000FEF731F90020FEF72EF9BE20FEF72BF95B
:104310000020FEF728F9C420FEF725F90020FEF75B
:1043200022F9CD20FEF71FF90020FEF71CF9D3205B
:10433000FEF719F90020FEF716F9DC20FEF713F955
:104340000020FEF710F9F320FEF70DF90020FEF72C
:104350000AF9E620FEF7FEF81120FEF704F9002026
:10436000FEF701F93420FEF7FEF80020FEF7FBF817
:104370005620FEF7F8F80020FEF7F5F87620FEF755
:10438000F2F80020FEF7EFF87720FEF7ECF80020B7
:10439000FEF7E9F86620FEF7E6F80020FEF7E3F8FE
:1043A0008820FEF7E0F80020FEF7DDF89920FEF700
:1043B000DAF80020FEF7D7F8BB20FEF7D4F800208B
:1043C000FEF7D1F89920FEF7CEF80020FEF7CBF8E3
:1043D0006620FEF7C8F80020FEF7C5F85520FEF766
:1043E000C2F80020FEF7BFF85520FEF7BCF8002009
:1043F000FEF7B9F84520FEF7B6F80020FEF7B3F84F
:104400004320FEF7B0F80020FEF7ADF84420FEF799
:10441000AAF80020FEF7A7F8E720FEF79BF8322065
:10442000FEF7A1F80020FEF79EF85520FEF79BF856
:104430000020FEF798F87620FEF795F80020FEF7AA
:1044400092F86620FEF78FF80020FEF78CF86720C0
:10445000FEF789F80020FEF786F86720FEF783F85C
:104460000020FEF780F88720FEF77DF80020FEF799
:104470007AF89920FEF777F80020FEF774F8BB2051
:10448000FEF771F80020FEF76EF89920FEF76BF842
:104490000020FEF768F87720FEF765F80020FEF7A9
:1044A00062F84420FEF75FF80020FEF75CF8562023
:1044B000FEF759F80020FEF756F82320FEF753F8D0
:1044C0000020FEF750F83320FEF74DF80020FEF7ED
:1044D0004AF84520FEF747F80020FEF744F8E820A8
:1044E000FEF738F80020FEF73EF80020FEF73BF814
:1044F0009920FEF738F80020FEF735F88720FEF700
:1045000032F80020FEF72FF88820FEF72CF8002064
:10451000FEF729F87720FEF726F80020FEF723F8AB
:104520006620FEF720F80020FEF71DF88820FEF731
:104530001AF80020FEF717F8AA20FEF714F800205A
:10454000FEF711F8BB20FEF70EF80020FEF70BF87F
:104550009920FEF708F80020FEF705F86620FEF720
:1045600002F80020FDF7FFFF5520FDF7FCFF0020BB
:10457000FDF7F9FF5520FDF7F6FF0020FDF7F3FFEB
:104580004420FDF7F0FF0020FDF7EDFF4420FDF78C
:10459000EAFF0020FDF7E7FF5520FDF7E4FF0020CC
:1045A000FDF7E1FFE920FDF7D5FFAA20FDF7DBFFCE
:1045B0000020FDF7D8FF0020FDF7D5FF0020FDF714
:1045C000D2FF0020FDF7C6FFAA20FDF7CCFFCF20C9
:1045D000FDF7C0FF0020FDF7C6FF0020FDF7C3FF79
:1045E0000020FDF7C0FF0020FDF7BDFF0020FDF714
:1045F000BAFF0020FDF7B7FF0020FDF7B4FF002051
:10460000FDF7B1FF0020FDF7AEFF0020FDF7ABFF87
:104610000020FDF7A8FF0020FDF7A5FF0020FDF713
:10462000A2FF0020FDF79FFF0020FDF79CFF002068
:10463000FDF799FF0020FDF796FFF020FDF78AFFB8
:104640000020FDF790FF5020FDF78DFF0020FDF7C3
:104650008AFF0020FDF787FF0020FDF784FFF3208D
:10466000FDF778FF0020FDF77EFFF920FDF772FFD0
:104670000620FDF778FF1020FDF775FF2920FDF7D4
:1046800072FF0020FDF76FFF3A20FDF763FF552012
:10469000FDF769FF1120FDF75DFF642007F0A7FB20
:1046A0002920FDF757FF3520FDF754FF0020FDF7C7
:1046B0005AFF5120FDF74EFFFF20FDF754FF532016
:1046C000FDF748FF2C20FDF74EFF5520FDF742FF78
:1046D0008220FDF748FF2C20FDF73CFF01F0DCBAFB
:1046E000FE48808845F2105188427DD155214FF413
:1046F0007040FDF74AFFAA214FF20100FDF745FF88
:1047000052214FF20200FDF740FF08214FF2030053
:10471000FDF73BFF01214FF20400FDF736FF0D21AD
:104720004FF43040FDF731FF0D214BF20100FDF752
:104730002CFF0D214BF20200FDF727FF34214FF42F
:104740003640FDF722FF34214BF20160FDF71DFFDB
:1047500034214BF20260FDF718FF0D214FF4314078
:10476000FDF713FF0D214BF20110FDF70EFF0D2198
:104770004BF20210FDF709FF34214FF43740FDF7EB
:1047800004FF34214BF20170FDF7FFFE34214BF2A0
:104790000270FDF7FAFE00214FF43240FDF7F5FEFE
:1047A00000214BF20120FDF7F0FE00214BF2022028
:1047B000FDF7EBFE24214FF43840FDF7E6FE2421FF
:1047C0004BF60100FDF7E1FE24214BF60200FDF758
:1047D000DCFE01214FF43F40FDF7D7FE0F214FF4DF
:1047E0003340FDF7D2FE00E0FDE30F214BF2013034
:1047F000FDF7CBFE0F214BF20230FDF7C6FE342150
:104800004FF43940FDF7C1FE34214BF60110FDF79E
:10481000BCFE34214BF60210FDF7B7FE08214FF421
:104820003540FDF7B2FE08214BF20150FDF7ADFE19
:1048300008214BF20250FDF7A8FE03214FF442403D
:10484000FDF7A3FE24214FF43A40FDF79EFE2421FC
:104850004BF60120FDF799FE24214BF60220FDF7CF
:1048600094FE00214FF43C40FDF78FFE78214BF67B
:104870000140FDF78AFE00214BF60240FDF785FE60
:1048800000214FF43D40FDF780FE78214BF60150AA
:10489000FDF77BFE00214BF60250FDF776FE00216E
:1048A0004FF43E40FDF771FE64214BF60160FDF7C9
:1048B0006CFE00214FF45140FDF767FE33214DF2AD
:1048C0000110FDF762FE00214DF20210FDF75DFEC2
:1048D00034214DF20310FDF758FE00214DF2041073
:1048E000FDF753FE3A214DF20510FDF74EFE002173
:1048F0004DF20610FDF749FE4A214DF20710FDF773
:1049000044FE00214DF20810FDF73FFE5C214DF200
:104910000910FDF73AFE00214DF20A10FDF735FEB1
:1049200081214DF20B10FDF730FE00214DF20C10ED
:10493000FDF72BFEA6214DF20D10FDF726FE0021FE
:104940004DF20E10FDF721FEE5214DF20F10FDF79F
:104950001CFE01214DF21010FDF717FE13214DF240
:104960001110FDF712FE01214DF21210FDF70DFEA0
:1049700054214DF21310FDF708FE01214DF21410E1
:10498000FDF703FE82214DF21510FDF7FEFD01211A
:104990004DF21610FDF7F9FDCA214DF21710FDF783
:1049A000F4FD02214DF21810FDF7EFFD00214DF24C
:1049B0001910FDF7EAFD02214DF21A10FDF7E5FD91
:1049C00001214DF21B10FDF7E0FD02214DF21C10FC
:1049D000FDF7DBFD34214DF21D10FDF7D6FD022160
:1049E0004DF21E10FDF7D1FD67214DF21F10FDF7AE
:1049F000CCFD02214DF22010FDF7C7FD84214DF2C0
:104A00002110FDF7C2FD02214DF22210FDF7BDFD80
:104A1000A4214DF22310FDF7B8FD02214DF2241020
:104A2000FDF7B3FDB7214DF22510FDF7AEFD0221D4
:104A30004DF22610FDF7A9FDCF214DF22710FDF70D
:104A4000A4FD02214DF22810FDF79FFDDE214DF25D
:104A50002910FDF79AFD02214DF22A10FDF795FD70
:104A6000F2214DF22B10FDF790FD02214DF22C109A
:104A7000FDF78BFDFE214DF22D10FDF786FD032184
:104A80004DF22E10FDF781FD10214DF22F10FDF794
:104A90007CFD03214DF23010FDF777FD33214DF2FF
:104AA0003110FDF772FD03214DF23210FDF76DFD5F
:104AB0006D214DF23310FDF768FD00214FF4524097
:104AC000FDF763FD33214DF20120FDF75EFD00216E
:104AD0004DF20220FDF759FD342101E09401002040
:104AE0004DF20320FDF751FD00214DF20420FDF7AA
:104AF0004CFD3A214DF20520FDF747FD00214DF216
:104B00000620FDF742FD4A214DF20720FDF73DFD4D
:104B100000214DF20820FDF738FD5C214DF20920FF
:104B2000FDF733FD00214DF20A20FDF72EFD812116
:104B30004DF20B20FDF729FD00214DF20C20FDF771
:104B400024FDA6214DF20D20FDF71FFD00214DF2A1
:104B50000E20FDF71AFDE5214DF20F20FDF715FDA2
:104B600001214DF21020FDF710FD13214DF211200F
:104B7000FDF70BFD01214DF21220FDF706FD54213A
:104B80004DF21320FDF701FD01214DF21420FDF738
:104B9000FCFC82214DF21520FDF7F7FC01214DF2BE
:104BA0001620FDF7F2FCCA214DF21720FDF7EDFCAF
:104BB00002214DF21820FDF7E8FC00214DF21920EA
:104BC000FDF7E3FC02214DF21A20FDF7DEFC012186
:104BD0004DF21B20FDF7D9FC02214DF21C20FDF700
:104BE000D4FC34214DF21D20FDF7CFFC02214DF203
:104BF0001E20FDF7CAFC67214DF21F20FDF7C5FC02
:104C000002214DF22020FDF7C0FC84214DF221202D
:104C1000FDF7BBFC02214DF22220FDF7B6FCA421DA
:104C20004DF22320FDF7B1FC02214DF22420FDF7C7
:104C3000ACFCB7214DF22520FDF7A7FC02214DF277
:104C40002620FDF7A2FCCF214DF22720FDF79DFC89
:104C500002214DF22820FDF798FCDE214DF229209B
:104C6000FDF793FC02214DF22A20FDF78EFCF22184
:104C70004DF22B20FDF789FC02214DF22C20FDF78F
:104C800084FCFE214DF22D20FDF77FFC03214DF227
:104C90002E20FDF77AFC10214DF22F20FDF775FC38
:104CA00003214DF23020FDF770FC33214DF231200D
:104CB000FDF76BFC03214DF23220FDF766FC6D2100
:104CC0004DF23320FDF761FC00214FF45340FDF716
:104CD0005CFC33214DF20130FDF757FC00214DF211
:104CE0000230FDF752FC34214DF20330FDF74DFC4C
:104CF00000214DF20430FDF748FC3A214DF2053019
:104D0000FDF743FC00214DF20630FDF73EFC4A2141
:104D10004DF20730FDF739FC00214DF20830FDF768
:104D200034FC5C214DF20930FDF72FFC00214DF2DF
:104D30000A30FDF72AFC81214DF20B30FDF725FCEE
:104D400000214DF20C30FDF720FCA6214DF20D3074
:104D5000FDF71BFC00214DF20E30FDF716FCE5219E
:104D60004DF20F30FDF711FC01214DF21030FDF72F
:104D70000CFC13214DF21130FDF707FC01214DF21F
:104D80001230FDF702FC54214DF21330FDF7FDFB0C
:104D900001214DF21430FDF7F8FB82214DF2153060
:104DA000FDF7F3FB01214DF21630FDF7EEFBCA21B2
:104DB0004DF21730FDF7E9FB02214DF21830FDF7F7
:104DC000E4FB00214DF21930FDF7DFFB02214DF22B
:104DD0001A30FDF7DAFB01214DF21B30FDF7D5FB50
:104DE00002214DF21C30FDF7D0FB34214DF21D3075
:104DF000FDF7CBFB02214DF21E30FDF7C6FB67210C
:104E00004DF21F30FDF7C1FB02214DF22030FDF7BE
:104E1000BCFB84214DF22130FDF7B7FB02214DF29E
:104E20002230FDF7B2FBA4214DF22330FDF7ADFB9C
:104E300002214DF22430FDF7A8FBB7214DF22530B9
:104E4000FDF7A3FB02214DF22630FDF79EFBCF219B
:104E50004DF22730FDF799FB02214DF22830FDF786
:104E600094FBDE214DF22930FDF78FFB02214DF23C
:104E70002A30FDF78AFBF2214DF22B30FDF785FB3E
:104E800002214DF22C30FDF780FBFE214DF22D303A
:104E9000FDF77BFB03214DF22E30FDF776FB102151
:104EA0004DF22F30FDF771FB03214DF23030FDF74D
:104EB0006CFB33214DF23130FDF767FB03214DF2DE
:104EC0003230FDF762FB6D214DF23330FDF75DFBB3
:104ED00000214FF45440FDF758FB33214DF20140BF
:104EE000FDF753FB00214DF20240FDF74EFB34214C
:104EF0004DF20340FDF749FB00214DF20440FDF760
:104F000044FB3A214DF20540FDF73FFB00214DF2F5
:104F10000640FDF73AFB4A214DF20740FDF735FB0D
:104F200000214DF20840FDF730FB5C214DF20940B5
:104F3000FDF72BFB00214DF20A40FDF726FB8121F6
:104F40004DF20B40FDF721FB00214DF20C40FDF727
:104F50001CFBA6214DF20D40FDF717FB00214DF281
:104F60000E40FDF712FBE5214DF20F40FDF70DFB62
:104F700001214DF21040FDF708FB13214DF21140C5
:104F8000FDF703FB01214DF21240FDF7FEFA54211B
:104F90004DF21340FDF7F9FA01214DF21440FDF7EF
:104FA000F4FA82214DF21540FDF7EFFA01214DF29E
:104FB0001640FDF7EAFACA214DF21740FDF7E5FA6F
:104FC00002214DF21840FDF7E0FA00214DF21940A0
:104FD000FDF7DBFA02214DF21A40FDF7D6FA012166
:104FE0004DF21B4000E005E3FDF7CFFA02214DF240
:104FF0001C40FDF7CAFA34214DF21D40FDF7C5FAF9
:1050000002214DF21E40FDF7C0FA67214DF21F400C
:10501000FDF7BBFA02214DF22040FDF7B6FA8421DC
:105020004DF22140FDF7B1FA02214DF22240FDF789
:10503000ACFAA4214DF22340FDF7A7FA02214DF26C
:105040002440FDF7A2FAB7214DF22540FDF79DFA65
:1050500002214DF22640FDF798FACF214DF227406C
:10506000FDF793FA02214DF22840FDF78EFADE217A
:105070004DF22940FDF789FA02214DF22A40FDF751
:1050800084FAF2214DF22B40FDF77FFA02214DF216
:105090002C40FDF77AFAFE214DF22D40FDF775FA0E
:1050A00003214DF22E40FDF770FA10214DF22F40F2
:1050B000FDF76BFA03214DF23040FDF766FA33211C
:1050C0004DF23140FDF761FA03214DF23240FDF718
:1050D0005CFA6D214DF23340FDF757FA00214FF491
:1050E0005540FDF752FA33214DF20150FDF74DFACC
:1050F00000214DF20250FDF748FA34214DF20350E1
:10510000FDF743FA00214DF20450FDF73EFA3A2133
:105110004DF20550FDF739FA00214DF20650FDF72A
:1051200034FA4A214DF20750FDF72FFA00214DF2D3
:105130000850FDF72AFA5C214DF20950FDF725FAD7
:1051400000214DF20A50FDF720FA81214DF20B505B
:10515000FDF71BFA00214DF20C50FDF716FAA621BF
:105160004DF20D50FDF711FA00214DF20E50FDF7F2
:105170000CFAE5214DF20F50FDF707FA01214DF22F
:105180001050FDF702FA13214DF21150FDF7FDF911
:1051900001214DF21250FDF7F8F954214DF2135050
:1051A000FDF7F3F901214DF21450FDF7EEF98221DC
:1051B0004DF21550FDF7E9F901214DF21650FDF7BA
:1051C000E4F9CA214DF21750FDF7DFF902214DF243
:1051D0001850FDF7DAF900214DF21950FDF7D5F915
:1051E00002214DF21A50FDF7D0F901214DF21B506A
:1051F000FDF7CBF902214DF21C50FDF7C6F9342121
:105200004DF21D50FDF7C1F902214DF21E50FDF780
:10521000BCF967214DF21F50FDF7B7F902214DF29D
:105220002050FDF7B2F984214DF22150FDF7ADF980
:1052300002214DF22250FDF7A8F9A4214DF223508E
:10524000FDF7A3F902214DF22450FDF79EF9B72195
:105250004DF22550FDF799F902214DF22650FDF748
:1052600094F9CF214DF22750FDF78FF902214DF22D
:105270002850FDF78AF9DE214DF22950FDF785F916
:1052800002214DF22A50FDF780F9F2214DF22B5008
:10529000FDF77BF902214DF22C50FDF776F9FE2146
:1052A0004DF22D50FDF771F903214DF22E50FDF70F
:1052B0006CF910214DF22F50FDF767F903214DF2E3
:1052C0003050FDF762F933214DF23150FDF75DF9B1
:1052D00003214DF23250FDF758F96D214DF2335054
:1052E000FDF753F900214FF45640FDF74EF93321F5
:1052F0004DF20160FDF749F900214DF20260FDF722
:1053000044F934214DF20360FDF73FF900214DF2DD
:105310000460FDF73AF93A214DF20560FDF735F9E1
:1053200000214DF20660FDF730F94A214DF2076089
:10533000FDF72BF900214DF20860FDF726F95C21FD
:105340004DF20960FDF721F900214DF20A60FDF7E9
:105350001CF981214DF20B60FDF717F900214DF288
:105360000C60FDF712F9A6214DF20D60FDF70DF965
:1053700000214DF20E60FDF708F9E5214DF20F60B6
:10538000FDF703F901214DF21060FDF7FEF813213E
:105390004DF21160FDF7F9F801214DF21260FDF7B1
:1053A000F4F854214DF21360FDF7EFF801214DF2AE
:1053B0001460FDF7EAF882214DF21560FDF7E5F87B
:1053C00001214DF21660FDF7E0F8CA214DF2176099
:1053D000FDF7DBF802214DF21860FDF7D6F8002149
:1053E0004DF21960FDF7D1F802214DF21A60FDF778
:1053F000CCF801214DF21B60FDF7C7F802214DF2F8
:105400001C60FDF7C2F834214DF21D60FDF7BDF8B8
:1054100002214DF21E60FDF7B8F867214DF21F60C2
:10542000FDF7B3F802214DF22060FDF7AEF88421BC
:105430004DF22160FDF7A9F802214DF22260FDF73F
:10544000A4F8A4214DF22360FDF79FF802214DF24C
:105450002460FDF79AF8B7214DF22560FDF795F825
:1054600002214DF22660FDF790F8CF214DF2276022
:10547000FDF78BF802214DF22860FDF786F8DE215A
:105480004DF22960FDF781F802214DF22A60FDF707
:105490007CF8F2214DF22B60FDF777F802214DF2F6
:1054A0002C60FDF772F8FE214DF22D60FDF76DF8CE
:1054B00003214DF22E60FDF768F810214DF22F60A8
:1054C000FDF763F803214DF23060FDF75EF83321FC
:1054D0004DF23160FDF759F803214DF23260FDF7CE
:1054E00054F86D214DF23360FDF74FF855214FF41C
:1054F0007040FDF74AF8AA214FF20100FDF745F888
:1055000052214FF20200FDF740F808214FF203004C
:10551000FDF73BF800214FF20400FDF736F8CC21EF
:105520004FF43140FDF731F800214BF20110FDF747
:105530002CF805214FF43640FDF727F870214FF481
:105540003740FDF722F870214BF20170FDF71DF88E
:1055500001214FF43840FDF718F803214BF6010004
:10556000FDF713F803214BF60200FDF70EF80321B7
:105570004BF60300FDF709F802214FF43C40FDF71C
:1055800004F800214BF60140FCF7FFFF00214BF629
:105590000240FCF7FAFFD0214FF44940FCF7F5FF39
:1055A00002214CF60110FCF7F0FF50214CF60210DE
:1055B000FCF7EBFF50214CF60310FCF7E6FF5021FF
:1055C0004CF60410FCF7E1FF00214FF45450FCF7B7
:1055D000DCFF55214FF46850FCF7D7FF4FF488509B
:1055E000FCF7B8FF782006F0F5FB4FF42450FCF7E9
:1055F000B1FF51E3FE48808847F2967188427CD122
:105600001120FCF7A7FF782006F0F1FB3620FCF70D
:10561000A1FF4820FCF7A7FF3A20FCF79BFF55208D
:10562000FCF7A1FFF020FCF795FFC320FCF79BFFE0
:10563000F020FCF78FFF9620FCF795FFB420FCF7D5
:1056400089FF0120FCF78FFFB620FCF783FF0A20BB
:10565000FCF789FFA220FCF786FFB720FCF77AFF52
:10566000C620FCF780FFB920FCF774FF0220FCF78E
:105670007AFFE020FCF777FFC020FCF76BFF80206B
:10568000FCF771FF1620FCF76EFFC120FCF762FFEC
:105690001920FCF768FFC220FCF75CFFA720FCF78D
:1056A00062FFC520FCF756FF1620FCF75CFFE820E0
:1056B000FCF750FF4020FCF756FF8A20FCF753FF11
:1056C0000020FCF750FF0020FCF74DFF2920FCF7DD
:1056D0004AFF1920FCF747FFA520FCF744FF3320C1
:1056E000FCF741FFE020FCF735FFF020FCF73BFF23
:1056F0000720FCF738FF0D2000E065E0FCF733FFE2
:105700000420FCF730FF0520FCF72DFF1420FCF7E8
:105710002AFF3620FCF727FF5420FCF724FF4C20FB
:10572000FCF721FF3820FCF71EFF1320FCF71BFFBE
:105730001420FCF718FF2E20FCF715FF3420FCF78F
:1057400012FFE120FCF706FFF020FCF70CFF102011
:10575000FCF709FF1420FCF706FF0E20FCF703FFFF
:105760000C20FCF700FF0820FCF7FDFE3520FCF7BD
:10577000FAFE4420FCF7F7FE4C20FCF7F4FE26204E
:10578000FCF7F1FE1020FCF7EEFE1220FCF7EBFE1A
:105790002C20FCF7E8FE3220FCF7E5FEF020FCF7B9
:1057A000D9FE3C20FCF7DFFEF020FCF7D3FE692099
:1057B000FCF7D9FE782006F01AFB2120FCF7CAFE80
:1057C0002920FCF7C7FE67E28948808849F6060170
:1057D00088427CD1FF20FCF7BDFEFF20FCF7C3FE12
:1057E0009820FCF7C0FE0620FCF7BDFEBC20FCF7AD
:1057F000B1FE0120FCF7B7FE0F20FCF7B4FE6120DC
:10580000FCF7B1FEFF20FCF7AEFE0120FCF7ABFE7B
:105810000120FCF7A8FE0B20FCF7A5FE1020FCF7EA
:10582000A2FE3720FCF79FFE6320FCF79CFEFF20C2
:10583000FCF799FEFF20FCF796FE0120FCF793FE93
:105840000120FCF790FE0020FCF78DFE0020FCF705
:105850008AFEFF20FCF787FE5220FCF784FE012021
:10586000FCF781FE0020FCF77EFE4020FCF77BFE6B
:10587000BD20FCF76FFE0120FCF775FE2320FCF72E
:1058800072FE4520FCF76FFE6720FCF76CFE0120DE
:10589000FCF769FE2320FCF766FE4520FCF763FE5B
:1058A0006720FCF760FEBE20FCF754FE0020FCF7EA
:1058B0005AFE0120FCF757FEAB20FCF754FE602097
:1058C000FCF751FE2220FCF74EFE222000E025E1ED
:1058D000FCF749FE2220FCF746FE2220FCF743FE9F
:1058E0002220FCF740FEC720FCF734FE3620FCF7F0
:1058F0003AFEED20FCF72EFE7F20FCF734FE0F2051
:10590000FCF731FEC020FCF725FE0F20FCF72BFE34
:105910000B20FCF728FE0A20FCF725FEFC20FCF7F4
:1059200019FE0820FCF71FFEDF20FCF713FE002005
:10593000FCF719FE0020FCF716FE0020FCF713FE12
:105940000020FCF710FE0020FCF70DFE2020FCF7E5
:105950000AFEF320FCF7FEFD7420FCF704FEB420E1
:10596000FCF7F8FD0020FCF7FEFD0020FCF7FBFD36
:105970000020FCF7F8FDF720FCF7ECFD8220FCF797
:10598000F2FDB120FCF7E6FD0020FCF7ECFD132052
:10599000FCF7E9FD1320FCF7E6FDF220FCF7DAFD49
:1059A0008020FCF7E0FD0420FCF7DDFD4020FCF743
:1059B000DAFD2820FCF7D7FDC120FCF7CBFD17202E
:1059C000FCF7D1FD8820FCF7CEFD8820FCF7CBFD4D
:1059D0002020FCF7C8FDE020FCF7BCFD0020FCF710
:1059E000C2FD0A20FCF7BFFD1220FCF7BCFD01E060
:1059F000940100201020FCF7B6FD0E20FCF7B3FD4B
:105A00002020FCF7B0FDCC20FCF7ADFD0720FCF713
:105A1000AAFD0620FCF7A7FD0B20FCF7A4FD0E2035
:105A2000FCF7A1FD0F20FCF79EFD0D20FCF79BFD70
:105A30001520FCF798FD1020FCF795FD0020FCF7E1
:105A400092FDE120FCF786FD0020FCF78CFD0B2089
:105A5000FCF789FD1320FCF786FD0D20FCF783FD84
:105A60000E20FCF780FD1B20FCF77DFD7120FCF76C
:105A70007AFD0620FCF777FD0620FCF774FD0A206E
:105A8000FCF771FD0F20FCF76EFD0E20FCF76BFD9F
:105A90000F20FCF768FD1520FCF765FD0C20FCF7D6
:105AA00062FD0020FCF75FFD2A20FCF753FD00207B
:105AB000FCF759FD0020FCF756FD0120FCF753FDD3
:105AC000DF20FCF750FD2B20FCF744FD0020FCF705
:105AD0004AFD0020FCF747FD0320FCF744FD1F2092
