:020000040800F2
:1000000098190020AD9B0008852000088720000873
:100010008B2000088F2000089320000800000000BB
:100020000000000000000000000000009720000811
:1000300099200008000000009B2000089D20000877
:10004000C79B0008C79B0008C79B0008C79B000808
:10005000C79B0008C79B0008C79B0008C79B0008F8
:10006000C79B0008C79B0008C79B0008C79B0008E8
:10007000C79B0008C79B0008C79B0008C79B0008D8
:10008000C79B0008C79B0008C79B0008C79B0008C8
:10009000C79B0008C79B0008C79B0008C79B0008B8
:1000A000C79B0008C79B0008C79B0008C79B0008A8
:1000B000C79B0008C79B0008C79B0008C79B000898
:1000C000C79B0008C79B0008C79B0008C79B000888
:1000D000C79B00080BBA0008C79B00086F93000875
:1000E000C79B0008C79B0008C79B0008C79B000868
:1000F000C79B0008C79B0008C79B0008C79B000858
:10010000C79B0008C79B0008C79B0008C79B000847
:10011000C79B0008C79B0008C79B0008C79B000837
:10012000C79B0008C79B0008C79B0008C79B000827
:10013000C79B0008C79B0008C79B0008C79B000817
:10014000C79B0008C79B0008C79B0008C79B000807
:10015000C79B0008C79B0008C79B0008C79B0008F7
:10016000C79B0008C79B0008C79B0008C79B0008E7
:10017000C79B0008C79B0008C79B0008C79B0008D7
:10018000C79B0008C79B0008DFF810D00CF0ECFA02
:1001900000480047811D0008AFF300809819002037
:1001A00070B52DED020B6D46002409E0295D04F1C8
:1001B000500006F0D5FA0A200BF0B3FB601CC4B265
:1001C000042CF3DB7CBD38B56D46002406E004F159
:1001D000500006F099FA2855601CC4B2042CF6DBD6
:1001E0009DED000ADFEDFE0AB4EEE00AF1EE10FA32
:1001F0000FD39DED000ADFEDFB0AB4EEE00AF1EE4D
:1002000010FA06DC9DED000AB4EE400AF1EE10FA99
:1002100002D0B7EE000A38BD9DED000AFBE70EB52F
:10022000F14800680090F048001D00680190EE4819
:10023000083000680290029883B20098020CEBA18B
:10024000EE480CF09DFC0EBD0146B1F5FA7F01DCD5
:100250000020704740F6AC50814201DB6420F8E793
:10026000A1F5FA706422504340F6B83290FBF2F0E8
:10027000C0B2EEE72DE9F0472DED088BAEB009F0E6
:1002800009F9062804D02EB0BDEC088BBDE8F08734
:1002900008F0CDFF074608F0D4FF82465046FFF72E
:1002A000D3FF0446D6480078012800D100E00020A2
:1002B0008046D348C56AD34800680CF06AF841EC20
:1002C000190B28460CF03FF841EC1B0B9FEDCE0BB1
:1002D00053EC102B0BF0B7FF41EC1A0B53EC192B1E
:1002E0000BF03FFF41EC180B0CF03AF80646C848FB
:1002F000007810B9C748007808B1012000E000205C
:100300008146BF4802A9A1E8700290F83100CDE90A
:100310000007BB4890F830304246BFA116A80CF049
:100320002FFCCB480068401CC9490860B34AC9A1EA
:1003300006A80CF025FC16A906A809F0AEF800BF27
:10034000A1E7F8B509F0A6F80646C648008828389F
:1003500085B206244FF6FF70C34908801F20C349A9
:100360000880C04900900988491E8AB2BD490988A1
:10037000463988B21E23002105F04AFB062E2CD1F7
:100380004FF6FF70009004F10E0083B2A81D82B2F8
:1003900004F1080081B2284605F03AFB4FF6FF70E1
:1003A00004F10E07BBB205F10E07BAB2271DB9B2B0
:1003B00005F108070090B8B205F02AFB4FF6FF7070
:1003C00004F10E018BB205F116018AB2891F00906B
:1003D00088B2214605F01CFB45E0012E2BDD062EE0
:1003E00029DA4FF6FF70009004F10E0083B2A81DC9
:1003F00082B204F1080081B2284605F009FB4FF6ED
:10040000FF7004F10E07BBB205F10E07BAB2271D4B
:10041000B9B205F108070090B8B205F0F9FA04F195
:100420000E018BB205F116018AB2891F88B22146EE
:1004300005F09DFB17E04FF6FF708B49088004F133
:100440000F0083B205F10F0082B22146284605F065
:1004500036FB05F10F0082B204F10F0081B2234692
:10046000284605F02CFB00207F4908804FF6FF70DE
:100470007E490880F8BD01461E2901DA7CA070473C
:100480003C2901DA7CA0FAE7502901DA7CA0F6E7E2
:100490007DA0F4E770B588B005460C464FF6FF70B6
:1004A0000090704800880A3882B24FF494734FF479
:1004B0008C71462005F0ACFAA5B14FF478406A493A
:1004C00008800020102172A2CDE900210290654829
:1004D0000088503882B20B464FF48C71462005F0EC
:1004E000AEFE11E000206049088010216AA2CDE92B
:1004F000002102905B480088503882B20B464FF4CE
:100500008C71462005F09BFE4FF6FF700090554819
:1005100000880A3882B24FF49E734FF496714620D9
:1005200005F076FA22465EA104A80CF029FB002013
:100530004D49088004A810210B465022CDE9001037
:100540004FF49671462005F0BEFC2046FFF793FF5E
:100550000646002010210B466422CDE9006102907E
:100560004FF49671962005F06AFE08B070BD70B524
:1005700088B005460C464FF6FF7000903948008859
:100580000A3882B26A235A21462005F041FA9DB109
:100590004FF4784034490880002010213CA2CDE976
:1005A000002102902F480088503882B20B465A2111
:1005B000462005F044FE10E000202B490880102161
:1005C00035A2CDE90021029026480088503882B239
:1005D0000B465A21462005F032FE4FF6FF7063E0CD
:1005E0000AD7233C00007A44107AFF1F53656174D8
:1005F0005F2530345825303458000000DC000020DE
:10060000FC000020000000200000000000004E4020
:100610001400002015000020733D313B69753D2515
:10062000643B70633D25643B6C743D25643B686DA1
:100630003D25643B736D3D25643B7365633D256CCF
:10064000753B6665653D256C753B616C3D256400B9
:10065000200000206E65746261722F25732F737401
:1006600061746500300100203C0000203E00002045
:10067000C1BCBAC300000000D6D0B5C8000000005D
:10068000BDCFB8DF00000000CEA3CFD50000000032
:10069000D3D0C8CB00000000CEDEC8CB00000000E5
:1006A00025336425250000000090FE4800880A38A4
:1006B00082B27E236E21462005F0AAF92246AFF2CF
:1006C000200104A80CF05CFA0020F749088004A877
:1006D00010210B465022CDE900106E21462005F076
:1006E000F2FB2046FFF7C7FE0646002010210B460E
:1006F0006422CDE9006102906E21962005F09FFDF5
:1007000008B070BD00B52DED028B93B04FF6FF70B1
:1007100002F059FA1F200090E2480088401E82B281
:100720001E230021084605F073F94FF6FF70DE49DD
:1007300008801F20DD49088000201821DC4ACDE90F
:1007400000210290D74800885A3882B20B46052112
:100750000A2005F074FDFFF7F4FD0020D24908805F
:100760004FF6FF70D149088000201021D1A2CDE9B9
:1007700000210290CB480088143882B20B46282111
:100780000A2005F05CFDCE4800680BF002FE41EC4B
:10079000180B53EC182BCBA103A80CF0F1F9002097
:1007A000102103AACDE900210290BE480088143828
:1007B00082B20B463C210A2005F041FD00201021A9
:1007C000C5A20B46CDE90021029050225A210A20F1
:1007D00005F035FD00201021C1A20B46CDE9002116
:1007E000029050226E210A2005F029FD4FF6FF707D
:1007F0000090AC4800880A3882B26A235A21462009
:1008000005F006F94FF6FF700090A64800880A38F8
:1008100082B27E236E21462005F0FAF848F230407D
:100820000090A04800880A3882B2BE2396210A2090
:1008300005F0EEF81F209C49088048F230409B49A3
:100840000880A94890F8320078B100201021A7A2B2
:10085000CDE90021029093480088283882B20B46E7
:10086000A021142005F0EBFC0EE000201021A4A232
:10087000CDE9002102908B480088283882B20B46CF
:10088000A021142005F0DBFC0020874908804FF6EA
:10089000FF70864908808A4800680BF07AFD41ECB9
:1008A000180B53EC182B99A103A80CF069F9002040
:1008B000102103AACDE9002102907A48008814385B
:1008C00082B20B46D2210A2005F0B9FC4FF6FF7028
:1008D0000090744800880A3882B2FA23E6210A2080
:1008E00005F096F813B0BDEC028B00BD10B50020EA
:1008F0007D490870487008460021C0F8021088A1A0
:10090000801D0BF00CF9002077498862C86281F8DD
:10091000300081F8310081F8320008F0A7FC002097
:1009200008F0B1FC002008F0BBFC00207D49086005
:100930007D4908707D4908707D4908607D490870CF
:100940007D49087010BD00B591B0FFF7CFFF0020C2
:100950007A4908707A490870FFF7D4FE544A79A1A1
:1009600001A80CF00DF97BA101A808F096FD11B0CB
:1009700000BD0EB54FF6FF7002F025F91F20009064
:1009800048480088401E82B228230021084605F00E
:100990003FF84FF6FF70444908801F204349088004
:1009A00000201821424A0B46CDE900210290F02296
:1009B0000A21084605F043FCFFF7C3FC4FF6E07040
:1009C000DC234FF48C7264210090282005F020F87D
:1009D000DC234FF48C726421282005F0C8F84FF412
:1009E0007840314908804FF6E07030490880002097
:1009F00018215BA20B46CDE900210290C82282217A
:100A0000502005F01CFC002027490880102157A227
:100A10000B46CDE900210290F022AA213C2005F0EE
:100A20000EFC0EBD0EB500201F4908804FF6FF706A
:100A30001E4908802C4890F83100B0B14FF4FC609A
:100A4000D12340F22B12AB210090B52004F0E0FF3F
:100A5000002010214AA20B46CDE900210290642219
:100A6000B621C82005F0EBFB15E048F23040D12359
:100A700040F22B12AB210090B52004F0C9FF0020FA
:100A8000102141A20B46CDE9002102906422B6213B
:100A9000C82005F0D4FBD2234FF49672AA21B420CB
:100AA00076E00000300100203C0000203E000020E5
:100AB000DC000020BBB6D3ADCAB9D3C30000000030
:100AC00000000020B7D1C2CA3A20252E3166D4AA30
:100AD0002FB7D6D6D3000000D7F9CEBB3A0000001E
:100AE000D1CCCEED3A000000FC000020CEACBBA47F
:100AF000D6D0A3ACC7EBCEF0C9CFBBFA0000000044
:100B0000C7EBCBA2BFA8C9CFBBFA0000B7D1C2CAFE
:100B10003A252E3166D4AA2FB7D6D6D300000000CE
:100B20002D2D0000100000201400002015000020D2
:100B30001C000020170000201600002004000020E8
:100B4000050000206E65746261722F25732F636D3E
:100B500064000000636865636B6F757400000000DB
:100B6000D4DDCDA3B7FECEF100000000B9A4B3CC14
:100B7000CAA6D5FDD4DACEACBBA42E2E2E00000022
:100B8000B9D8B5C6B9E20000BFAAB5C6B9E200003F
:100B900004F0EDFF4FF4784040F20313EF22DD2123
:100BA0000090512004F034FF4FF6FF70FE4908809A
:100BB0004FF47840FD49088000201021FCA20B462C
:100BC000CDE9002102907822E821642005F037FB6E
:100BD0004FF48273F022DC21502004F0C8FF002083
:100BE000F14908804FF6FF70F04908800EBD0EB540
:100BF0000020ED4908804FF6FF70EC490880EF486F
:100C000090F83000A8B14FF4FC60D1238B22AB21C7
:100C10000090152004F0FCFE00201021E8A20B46F5
:100C2000CDE9002102906422B621282005F007FBBF
:100C300014E048F23040D1238B22AB2100901520E4
:100C400004F0E6FE00201021DFA20B46CDE90021D2
:100C500002906422B621282005F0F1FAD2238C22DA
:100C6000AA21142004F083FF0EBD70B52DED088B72
:100C70008AB0D248C06A3C21B0FBF1F5CF48C06AC7
:100C8000B0FBF1F201FB12060020C74908804FF6C5
:100C9000FF70C649088092234FF49B728221009016
:100CA000502004F0B5FE33462A46C9A104A80BF033
:100CB00067FF0020102104AA0B46CDE90021029015
:100CC000E6228221502005F0BAFAC44800680BF0F1
:100CD00060FB41EC190BB949C86A0BF034FB41ECDD
:100CE0001B0B9FEDBF0B53EC102B0BF0ACFA41EC40
:100CF0001A0B53EC192B0BF034FA41EC180B0BF0D8
:100D00002FFB04464FF6FF70A6234FF49B729621EB
:100D10000090502004F07CFE2246B3A104A80BF002
:100D20002FFF0020102104AA0B46CDE900210290DC
:100D3000E6229621502005F082FA0AB0BDEC088B1D
:100D400070BD30B589B00020974908804FF6FF701C
:100D5000964908807E234FF49B726E2100905020AC
:100D600004F056FE9548806A6421B0FBF1F4934884
:100D7000806AB0FBF1F201FB12052B4622469CA1D2
:100D800003A80BF0FDFE0020102103AA0B46CDE9BD
:100D900000210290E6226E21502005F050FA09B0A1
:100DA00030BD00B589B000207F4908804FF6FF7044
:100DB0007E4908806A234FF49B725A21009050208C
:100DC00004F026FE7D484078B8B17C4840797B49E4
:100DD0000979CDE900107948C378827888A103A801
:100DE0000BF0CEFE03A810210B46E622CDE9001041
:100DF0005A21502005F067F80CE000201021AFF2D6
:100E0000E0220B46CDE900210290E6225A21502033
:100E100005F015FA09B000BD0EB500206249088042
:100E20004FF6FF706149088056234FF49B724621AC
:100E30000090502004F0ECFD6048007810B15F484D
:100E4000407868B900201021AFF22C320B46CDE972
:100E500000210290E6224621502005F0F0F90CE036
:100E6000002110225548801D1346CDE90121009034
:100E7000E6224621502005F0E2F90EBD3EB50020E5
:100E8000494908804FF6FF704849088042234FF4D3
:100E90009B7232210090502004F0BAFD4748007840
:100EA00008B95CA400E05DA4002010210B46E622F6
:100EB000CDE9004102903221502005F0C0F93EBD3D
:100EC00000B52DED028B93B04FF6FF7001F07BFE65
:100ED0001F20009053480088401E82B21E2300212C
:100EE000084604F095FD4FF6FF702F4908801F203B
:100EF0002E490880002018214B4ACDE9002102909C
:100F0000484800885A3882B20B4605210A2005F06D
:100F100096F9FFF716FA0020234908804FF6FF7074
:100F2000224908802D4800680BF033FA41EC180B79
:100F300053EC182BAFF2744103A80BF021FE0020F4
:100F4000102103AACDE90021029036480088143808
:100F500082B20B4620210A2005F071F900201021F1
:100F600032A20B46CDE900210290462232210A200E
:100F700005F065F9002010212EA20B46CDE90021D5
:100F80000290462211460A2005F059F9002010214E
:100F90002AA20B46CDE90021029046225A210A20BE
:100FA00005F04DF900204DE03C0000203E000020FF
:100FB000CFC2BBFABDE1CBE300000000FC00002083
:100FC000B9D8B5E7C4D40000BFAAB5E7C4D40000BF
:100FD0002530326C753A2530326C750000000020E7
:100FE0000000000000004E4025346C7520D4AA009B
:100FF000256C752E2530326C7520D4AA00000000B7
:1010000025303258202530325820253032582025BE
:1010100030325800B4FDBBFA00000000C9CFBBFA63
:10102000D6D0000030010020DC000020D7B4CCACCA
:101030003A000000D3C3BBA73A000000BFA8BAC55E
:101040003A0000001021FEA20B46CDE900210290DB
:1010500046226E210A2005F0F2F800201021FAA2A3
:101060000B46CDE900210290462282210A2005F09C
:10107000E6F800201021F6A20B46CDE900210290EF
:10108000462296210A2005F0DAF8D2238C22AA21E2
:10109000142004F06CFDD2234FF49672AA21B420E0
:1010A00004F065FD4FF48273F022DC21502004F03F
:1010B0005EFD00201021AFF2E0520B46CDE9002189
:1010C000029050224FF48C710A2005F0B8F80020ED
:1010D0001021AFF2F4520B46CDE9002102905022CC
:1010E0004FF496710A2005F0AAF8DB4800680BF06F
:1010F00050F941EC180B53EC182BAFF2F05103A848
:101100000BF03EFD0020102103AA0B46CDE9002183
:10111000029078224FF4A0710A2005F090F84FF663
:10112000FF700090CD4800880A3882B24FF4A8734F
:101130004FF48C71462004F06BFC13B0BDEC028BB5
:1011400000BD10B5C648007810B9FFF7DBFA1AE009
:10115000C3480078012810D1FFF7B2FEFFF78EFEDA
:10116000FFF75AFEFFF71DFEFFF7EBFDFFF77DFDD2
:10117000FFF73DFDFFF756FC05E0B948007803286E
:1011800001D1FFF7F6FB10BD2DE9FE4380468946ED
:101190001E2450254FF4827678274FF47840EB19BF
:1011A000A21929460090204604F032FCEB19A2193E
:1011B0002946204604F0DBFC05EB070CACF1020CE1
:1011C0001FFA8CF304EB060CACF1020C1FFA8CF244
:1011D000A91CA01C04F0CBFC4FF6FF70A1490880AD
:1011E0004FF47840A049088000201821CDE9008103
:1011F000029005F11E0104F114001823C82205F025
:101200001EF800201021CDE90091029005F1460161
:1012100004F114001023DC2205F011F8BDE8FE8370
:10122000F8B50A248D484088183885B28B48008864
:10123000143886B214274FF6FF700090E81983B275
:10124000A01982B22946204604F0E2FBF8BD2DE940
:10125000FE4306460A2481484088183885B27F48F4
:101260000088143887B24FF0140848F230400090DC
:1012700005EB080083B2E01982B22946204604F04B
:10128000C7FB00207749088048F230407649088043
:1012900000201021A7F108039AB2AB1CCDE9006130
:1012A000029099B2201D102304F0C9FFBDE8FE830F
:1012B000F8B506460D4600240DE006EB44006A46EC
:1012C0006AA10AF035FC012802D10098285501E0F6
:1012D00000202855641C042CEFDBF8BD70B52DED03
:1012E000028B9AB09FED630A8DED190A624800786F
:1012F000B8B1002060490870FFF7F8FA002058499B
:1013000008705E490870FFF7FDF908F0B3F85CA0BB
:10131000FFF79DFF03205D4908701AB0BDEC028BFA
:1013200070BD5B480078002838D00020584908700C
:10133000584890ED000A484880ED000A90ED000AF8
:10134000FEF72EFF444800680BF023F841EC180B21
:1013500053EC182B50A111A80BF012FC11A8FFF7A9
:1013600076FF0320494908703D48007810B9FFF71F
:10137000C9F913E03A48007801280FD1FFF7A0FD22
:10138000FFF77CFDFFF748FDFFF70BFDFFF7D9FCEA
:10139000FFF76BFCFFF72BFCFFF744FB434800789B
:1013A000B0B10020414908700120414981F8320064
:1013B00000204049087040490870032028490870FF
:1013C000FFF7D7FA3DA0FFF742FF03202F4908702F
:1013D0003E48007878B100203C490870344981F8D3
:1013E00032001F490870FFF78DF939A0FFF72FFF72
:1013F0000320264908703B48007880B10020394915
:10140000087001202A4981F8300007F02FFF1448A6
:101410000078012801D1FFF7EAFBFEF72BFF3248E5
:10142000007858B1002030490870214981F8300017
:1014300007F01CFF0A480078012857E05BE0000035
:10144000D3E0B6EE3A000000CAB1B3A43A000000FF
:10145000B7D1D3C33A0000000000002030010020C3
:10146000040000203C0000203E000020253032789F
:1014700000000000000000008A000020050000209D
:10148000CFB5CDB3D2D1D6D8D6C300001600002038
:101490009500002098000020B7D1C2CAB8FCD0C285
:1014A0003A20252E3166D4AA2FB7D600900000200E
:1014B000FC0000201400002015000020D2D1BDF84F
:1014C000C8EBCEACBBA4C4A3CABD000091000020F1
:1014D000CEACBBA4BDE1CAF8A3ACBBD6B8B4D5FDB5
:1014E000B3A300008B0000208C00002001D1FFF787
:1014F0007EFBFEF7BFFEFD48007880B10020FB496F
:1015000008700120FA4981F8310007F0BCFEF94863
:101510000078012801D1FFF785FAFEF7ABFEF64807
:10152000007878B10020F4490870F14981F8310061
:1015300007F0A9FEEF480078012801D1FFF772FA01
:10154000FEF798FEED48007840B10020EB490870A6
:10155000E7480078012801D1FFF7F5F9E84800785D
:1015600040B10020E64908700520E6490870E648C9
:10157000FFF76DFEE548007800285FD00020E349C2
:101580000870E3490870DA48407838B9D849891CAE
:10159000E048FFF78DFE0120D5494870DE4800681D
:1015A000D349C8622021D248801D0AF07AFADB496B
:1015B000CF48801D0AF0B3FA19AAD9A1D9480AF078
:1015C000B7FA9DED190ADFEDD80A20EE200ABCEE2D
:1015D000C00AC74880ED0A0A007801281DD0012002
:1015E000C349087081F8300081F8310007F03EFEF1
:1015F000012007F048FE0120BE4908700020CB49B9
:101600000870FFF75DFCBA48C06A18B1C8A0FFF7C0
:101610001EFE02E0C9A0FFF71AFEFFF72FFCFFF73E
:10162000FBFBFFF7BEFBFFF78CFBFFF71EFBFFF793
:10163000DEFAFFF7F7F90320B2490870C2480078D4
:10164000C8B10020C0490870B1490870BF49097885
:1016500009B1BE4900E0BEA10846FFF7F8FD05202C
:10166000A84908700020A24948700AF04AF900F61B
:10167000B830BA490860A6480078B8B10AF041F914
:10168000B7490968401A41F2883188420ED30020D8
:101690009F490870B3A0FFF7DAFD0320994908704D
:1016A0000AF02FF900F6B830AC4908609548007888
:1016B000002809DD93480078401E924908700846CA
:1016C000007808B9FFF7ACFD89480078012810D1EF
:1016D0008848007801280CD18548C06A401C84499C
:1016E000C862A348007820B9A248007808B9FFF77B
:1016F000BCFA07F09CFD044607F0A3FD0646304601
:10170000FEF7A2FD05467A4890F83200002851D134
:101710003C2D0ADB9648007880B901209449087076
:1017200095A198A0FFF730FD08E0914800780128C6
:1017300004D100208E490870FFF703FD6D48007842
:1017400088BB6B48007870BB04B390480068401CAD
:1017500020B18E480068401C8C4908608B480068A6
:1017600003282CD38348007818BB012081490870D6
:10177000874A88A101A80BF003FA8AA101A807F003
:101780008CFE8DA18FA0FFF7FFFC18E07948007850
:10179000012804D1002077490870FFF7D2FC00200F
:1017A0007A4908600BE0FFE700207249087077492A
:1017B000086004E000206F4908706D4908704C48CB
:1017C000007801281FD11CB10020804908601AE070
:1017D0007E480068401C20B17C480068401C7B4962
:1017E00008607A4800680A280DD3694A69A101A8EF
:1017F0000BF0C6F976A101A807F04FFEFFF7A3F89A
:101800000020724908603A4890F83200A8B9584858
:10181000007890B95748007878B93648007820B9F0
:1018200029462046FEF7A3FE07E03248007801284B
:1018300003D129462046FEF72DFEFEF782FD00BFAC
:101840006BE57CB504460D46E078A178CDE9001043
:101850006378227865A128460BF092F97CBD30B5FB
:101860009BB00546224890F8320038B164A0FFF7DB
:10187000EEFC0520234908701BB030BD1C480078E1
:10188000012806D166A0FFF7E2FC03201D4908707D
:10189000F2E7002405E0295D1548801C0155601C15
:1018A000C4B2042CF7DB01201149487018A928465E
:1018B000FFF7C7FF18AA5DA110A80BF061F907F0A8
:1018C000E9FD062810D1324A5AA168460BF058F9B2
:1018D00010A9684607F0E1FD01200D4908700AF0E3
:1018E00010F81F490860ADE0B3E000008D00002053
:1018F000FC000020040000208E0000208F0000204B
:1019000094000020160000205F13002092000020A9
:1019100017000020CF1300209C0000209F13002000
:1019200025660000BF1300200000C842050000200B
:10193000BBE1BBB0D2D1BBD6B8B40000CBA2BFA82C
:10194000B3C9B9A600000000930000207F13002057
:10195000CBA2BFA8CAA7B0DC000000002400002072
:1019600018000020D1E9D6A4B3ACCAB10000000031
:101970001500002014000020D1CCCEEDB1A8BEAFE0
:1019800000000000CEA3CFD52100000010000020F1
:10199000DC0000206E65746261722F25732F616C0C
:1019A000657274006F63637570795F6F7665725FDF
:1019B0003132307300000000C7EBCEF0D5BCD7F950
:1019C00021000000BEAFB8E6000000001C000020AF
:1019D0006175746F5F636865636B6F75745F6E6F5D
:1019E00068756D616E5F31356D696E0025303258F6
:1019F000253032582530325825303258000000004A
:101A0000D7F9CEBBCEACBBA4D6D0A3ACD4DDB2BB91
:101A1000CCE1B9A9C9CFBBFAB7FECEF100000000F6
:101A2000D2D1D4DAC9CFBBFAD6D000007569643DF3
:101A3000257300006E65746261722F25732F6361D8
:101A400072640000FBA0FFF702FC0520FE4908704D
:101A500005E0FEA0FFF7FBFB0520FB49087000BF77
:101A60000AE73EB5044648F230404FF482734FF423
:101A70008C7282210090282003F0CAFF4FF48273F9
:101A80004FF48C728221282004F071F80020F5496F
:101A9000088048F23040F4490880012C0CD1002025
:101AA0001021F2A20B46CDE900210290DC22962102
:101AB0003C2004F0C4FB0DE0022C0BD100201021CF
:101AC000EDA20B46CDE900210290DC2296213C20BC
:101AD00004F0B5FB4FF4FC60F0238C22D22100907F
:101AE0003C2003F095FF4FF6FF70DE4908804FF46D
:101AF000FC60DD49088000201021E3A20B46CDE9FF
:101B0000002102905022DA21442004F098FBF023B7
:101B10008C22D2213C2004F02AF84FF47840F023A4
:101B20004FF48272D2210090B42003F071FF4FF67F
:101B3000FF70CC4908804FF47840CB4908800020E2
:101B40001021D3A20B46CDE9002102905022DA21C8
:101B5000BC2004F074FBF0234FF48272D221B42035
:101B600004F005F80020BF4908804FF6FF70BE4919
:101B700008803EBD70B5C84841680020884738B12C
:101B8000C54890F82000C609C3488489C58A02E088
:101B9000002600240025002E7ED0C04800780028B2
:101BA0001AD10120BD490870BD480078012850D1E4
:101BB000142C1DDD8C2C1BDAAA2D19DDD22D17DA81
:101BC000B84890F8300040B90120B64981F830009B
:101BD00007F04CFBFFF70BF894E00120B2490870C6
:101BE0000220AF490870B0480078FFF73AFF89E05B
:101BF000B42C17DDB4F5967F14DAAA2D12DDD22DA0
:101C000010DAA84890F8310008B9012000E000205F
:101C1000A44981F8310091F8310007F034FBFEF758
:101C200001FF6FE0502C6DDDF02C6BDADC2D69DDEF
:101C3000B5F5827F66DA9B480078012862D10220E0
:101C4000994908709649087097480078FFF709FF8E
:101C500058E093480078022854D13C2C2FDD8C2C7E
:101C60002DDAD22D2BDDF02D29DA8F4800780128CE
:101C70001ED100208B4981F8300007F0F7FA0120CF
:101C800087490870002088490870FFF719F9FFF7A5
:101C9000F5F8FFF7C1F800E031E0FFF782F8FFF751
:101CA00050F8FEF7E2FFFEF7A2FFFEF7BBFE29E0C9
:101CB0007D480078022825D1FEF745FE22E0B42CAD
:101CC00020DDB4F5827F1DDAD22D1BDDF02D19DA6F
:101CD000012073490870002073490870FFF7F0F87D
:101CE000FFF7CCF8FFF798F8FFF75BF8FFF729F854
:101CF000FEF7BBFFFEF77BFFFEF794FE02E000203D
:101D00006649087070BD0EB51F2000F05CFF4FF6ED
:101D1000FF70544908801F20534908800020182173
:101D200062A20B46CDE900210290F02264211E2020
:101D300004F085FA0020102161A20B46CDE90021B4
:101D40000290C8228C21502004F079FA0020102142
:101D50005F4A0B46CDE900210290C822F0213C20C9
:101D600004F06DFA002010215AA20B46CDE90021A3
:101D70000290C8224FF48C713C2004F060FA0EBD32
:101D80000EB5002002904FF4A06007F021FFA820BC
:101D900009F086FD4FF4E13009F0E5FDFEF73FFA6A
:101DA0004B494FA00AF0DCFE07F0E8F907F0B4F960
:101DB00000F01EFF04F0A4FC002000F090FD4FF6A0
:101DC000FF7000F000FF04F049F90546DDB14FF661
:101DD000FF7000F0F8FE48A010210B464FF49672F9
:101DE000CDE900100A21084604F06DF847A0102143
:101DF0000B464FF49672CDE900101E210A2004F024
:101E000062F800BFFEE7FFF77EFF4FF4FA6009F0CB
:101E100088FD04F0F8FC20B9FEF7D5F9404880EDC4
:101E2000000A06F05AFEFEF761FD07F023FB0020D2
:101E30001B4977E0D5FDD4DAD1E9D6A4A3ACC7EB32
:101E4000C9D4BAF22E2E2E0016000020CDF8C2E71B
:101E5000CEB4C1ACBDD3A3ACCEDEB7A8D1E9D6A475
:101E6000000000003C0000203E000020C8B7C8CFA2
:101E7000B9D8BBFAA3BF0000C8B7C8CFCFC2BBFA5E
:101E8000BDE1CBE3A3BF0000C8B7C8CF000000008E
:101E9000C8A1CFFB00000000500000200600002079
:101EA00004000020FC00002005000020D6C7C4DC90
:101EB000CEDEC8CBCDF8B0C9CFB5CDB300000000A1
:101EC00053797374656D20496E69742E2E2E00004F
:101ED000DC00002042793A2053747564656E74000A
:101EE00044657669636520496E69742049443A20E7
:101EF00025730D0A00000000466F6E7420696E693C
:101F000074206572726F722100000000506C656170
:101F1000736520636865636B2057323551585800EC
:101F20000000002008704D490870FEF7EBFB07F039
:101F30007EF9074607F085F980464046FEF784F9AA
:101F400006464748007820B931463846FEF70FFB71
:101F500003E031463846FEF79DFA09F0D2FC4149CC
:101F6000086009F0CEFC4049086076E007F07AFC92
:101F70003E48416800208847FFF7FCFD09F0C1FC9E
:101F800004463B48007810B93A48007890B13A4886
:101F900090F8320070B9C820B4FBF0F100FB11409A
:101FA000642803D2012007F07BF906E0002007F047
:101FB00077F902E0002007F073F929480078C0B9EA
:101FC0002D480078A8B92C4890F8320088B92B48E1
:101FD000007870B92A48006884420AD902A807F03C
:101FE000A1F830B102A8FFF73AFC04F6B830244952
:101FF00008601C480068201AB0F57A7F11D3194890
:102000000068201A41F28831884202D915480460DC
:1020100005E01448006800F57A7012490860FFF77F
:102020005DF907F037FA062817D10F480068201A23
:10203000B0F57A7F11D30C480068201A41F288313C
:10204000884202D90848046005E00748006800F5A6
:102050007A7005490860FEF70DF987E70500002052
:1020600004000020080000200C0000205000002088
:102070001400002015000020FC00002017000020A4
:1020800024000020704700BFFEE700BFFEE700BF4E
:10209000FEE700BFFEE770477047704710B509F0D4
:1020A0002AFC10BD0CB50020019000907648006815
:1020B00040F480307449086000BF7348006800F441
:1020C000003000900198401C0190009818B90198C8
:1020D000B0F5A04FF1D16C48006800F4003010B1A9
:1020E0000120009001E0002000900098012846D1D6
:1020F00065484030006840F08050634940310860D6
:102100006248006840F44040604908605E4808301A
:1021100000685D49083108600846006840F40040E6
:1021200008600846006840F4A05008605848091F3D
:102130000860081F006840F08070091F086000BF39
:102140005148006800F000700028F9D040F2057096
:10215000504908604C480830006820F003004A49A4
:10216000083108600846006840F00200086000BFBF
:1021700045480830006800F00C000828F8D10CBD74
:1021800010B54548006840F47000434908603E4877
:10219000006840F001003C49086000203A490831DD
:1021A0000860394800683D490840374908603C48A4
:1021B000091D0860081F006820F48020091F0860BE
:1021C000002031490C310860FFF76CFF4FF00060D0
:1021D00031498039086010BD70B50020002202230B
:1021E00000240221284D08352D6805F00C0020B18F
:1021F000042806D0082834D107E02A4D2A4E35603D
:1022000033E02A4D284E35602FE01F4D2D1D2D68DF
:10221000C5F380541C4D2D1D2D6805F03F0154B1B0
:10222000224DB5FBF1F5184E361D3668C6F38816FB
:1022300005FB06F209E01B4DB5FBF1F5124E361D0C
:102240003668C6F3881605FB06F20F4D2D1D2D6866
:10225000C5F301456D1C6B00B2FBF3F5124E356002
:1022600003E0104D104E356000BF00BF064D08352D
:102270002D68C5F303150E4E705D0B4D2D68C540DE
:10228000094E356070BD000000380240007000400B
:1022900008544007003C024088ED00E0FFFFF6FED6
:1022A000103000240024F4002800002000127A00DE
:1022B0002C00002001B5BDF800000090BDF8000022
:1022C000FE49088008BD01B5BDF800000090BDF8CA
:1022D0000000FA49891C088008BD08B5F748801C31
:1022E00000880090BDF8000008BDF44A10804FF04F
:1022F000D842A2F88010704710B504462046FFF778
:10230000D9FF052009F000FBFFF7E7FF10BDEC48FF
:102310000089EA4908807047E849891C08807047AD
:1023200030B5014601F01F04C1F34513CA0AE502A6
:1023300005EB43151544A8B230BD00BF011EA0F146
:102340000102D0B2FAD1704710B502460C46DC4803
:10235000808841F66311884247D1D9488079A8B96D
:10236000D7480088401E801A82B2D5494889FFF7B5
:10237000A1FF0020FFF7A7FF0020FFF7A4FF101226
:10238000FFF7A1FFD0B2FFF79EFF16E0CC494889C6
:10239000FFF790FF1012FFF796FFD0B2FFF793FF01
:1023A000C7490988491EC1F30F20FFF78CFFC449B4
:1023B0000978491EC8B2FFF786FFC1498889FFF72F
:1023C00079FF2012FFF77FFFE0B2FFF77CFFBC49E7
:1023D0004988491EC1F30F20FFF775FFB849897876
:1023E000491EC8B2FFF76FFF3AE0B548808845F252
:1023F0001051884220D1B2494889FFF75BFF101283
:10240000FFF761FFAE494989491C88B2FFF752FFC7
:10241000D0B2FFF758FFAA498889FFF74BFF201277
:10242000FFF751FFA6498989491C88B2FFF742FF8F
:10243000E0B2FFF748FF13E0A1494889FFF73AFFF0
:102440001012FFF740FFD0B2FFF73DFF9C4988898B
:10245000FFF730FF2012FFF736FFE0B2FFF733FF40
:1024600010BD2DE9F04105460E4600240027A04688
:1024700093480088A84203DD91484088B04202DCBE
:102480000020BDE8F08131462846FFF75DFF8C480B
:10249000808845F21051884204D14FF43850FFF73C
:1024A00009FF02E02E20FFF705FFFFF716FF0446A5
:1024B0008348808841F66311884201D12046E0E7D5
:1024C000FFF70BFF04467E48808847F296718842EA
:1024D00001D12046D5E7FFF700FF8046E7B24FF66F
:1024E000FF7000EA0727E012C002B91240EA41106B
:1024F00040EAE820C5E700B57148808845F21051F0
:10250000884204D14FF42450FFF7D4FE02E0292082
:10251000FFF7D0FE00BD00B56948808845F2105134
:10252000884204D14FF42050FFF7C4FE02E0282077
:10253000FFF7C0FE00BDF0B5054600240027604847
:102540008079012805D15E48808841F66311884270
:1025500008D15B488079F0B95948808841F6631109
:10256000884218D1082D15D2DFE805F00406080AC4
:102570000C0E101206250DE007250BE0042509E0DE
:10258000052507E0012505E0002503E0032501E01E
:10259000022500BF00BF082D1CD2DFE805F00406AD
:1025A000090C0F12151800BF14E044F0800411E06C
:1025B00044F040040EE044F0C0040BE044F020047A
:1025C00008E044F0600405E044F0A00402E044F0B8
:1025D000E00400BF00BF3A48808845F210518842AD
:1025E00002D14FF4585700E036273548808849F229
:1025F000413188420BD03248808847F28971884245
:1026000005D02F48808847F29671884201D144F066
:10261000080421463846FFF768FE2948808841F6BD
:10262000631188421DD004F0200068B1244800885E
:1026300023494988884214DA21480688408820497D
:102640000880084646800CE01D4800881C494988DF
:10265000884206DD1A4806884088194908800846DD
:1026600046801748808845F21051884257D1144956
:102670004889FFF71FFE0020FFF725FE1049498912
:10268000491C88B2FFF716FE0020FFF71CFE0C491C
:102690004989891C88B2FFF70DFE09490988491E3E
:1026A000C1F30F20FFF70FFE05494989C91C88B205
:1026B000FFF700FE02490978491E03E07E00006C26
:1026C00030010020C8B2FFF7FEFDFE498889FFF700
:1026D000F1FD0020FFF7F7FDFA498989491C88B20E
:1026E000FFF7E8FD0020FFF7EEFDF6498989891C18
:1026F00088B2FFF7DFFDF3494988491EC1F30F2077
:10270000FFF7E1FDEF498989C91C88B2FFF7D2FDC7
:10271000EC498978491EC8B2FFF7D5FD2DE0E9499B
:102720004889FFF7C7FD0020FFF7CDFD0020FFF728
:10273000CAFDE4490988491EC1F30F20FFF7C3FD14
:10274000E0490978491EC8B2FFF7BDFDDD49888917
:10275000FFF7B0FD0020FFF7B6FD0020FFF7B3FD47
:10276000D8494988491EC1F30F20FFF7ACFDD54970
:102770008978491EC8B2FFF7A6FDF0BD30B5044602
:102780000D4629462046FFF7DFFDFFF7C0FDCE4886
:102790000088CE49088030BD30B504460D46C94892
:1027A000808845F21051884220D1C6494889FFF7F8
:1027B00081FD2012FFF787FDC2494989491C88B273
:1027C000FFF778FDE0B2FFF77EFDBE498889FFF78D
:1027D00071FD2812FFF777FDBA498989491C88B233
:1027E000FFF768FDE8B2FFF76EFD42E0B54880886C
:1027F00041F66311884228D1B248807920B9B148A6
:102800000088401E001B84B2AE494889FFF752FD84
:102810002012FFF758FDE0B2FFF755FD2012FFF739
:1028200052FDE0B2FFF74FFDA6498889FFF742FD50
:102830002812FFF748FDE8B2FFF745FD2812FFF721
:1028400042FDE8B2FFF73FFD13E09E494889FFF7DC
:1028500031FD2012FFF737FDE0B2FFF734FD994953
:102860008889FFF727FD2812FFF72DFDE8B2FFF753
:102870002AFD944800899549891E08804FF0D84068
:10288000A0F8802030BD70B52DED048B0446BE202D
:10289000FFF710FD0520FFF716FD204609F053FD58
:1028A00041EC190B9FED8A0B53EC102B09F059FCEE
:1028B00041EC180B09F054FD85B22846FFF703FDE3
:1028C0000120FFF700FDFF20FFF7FDFC0020FFF7D0
:1028D000FAFC0020FFF7F7FCBDEC048B70BD10B5CF
:1028E000044678488471002C58D1F020754908803E
:1028F0004FF4A07048800846808845F21051884205
:1029000010D14FF430506F4908814FF4285048815E
:102910004FF42C5088814FF4F07008804FF44870C9
:1029200048801AE06748808841F6631188420DD1DB
:102930002C20644908812B2048812A2088814FF46B
:10294000F07008804FF44870488006E02C205D4904
:1029500008812A2048812B2088815A48808845F2A6
:102960001031884205D05748808847F296718842D6
:1029700006D14FF4A070534908804FF4F07048809E
:102980005048808849F60601884258D14FF4F070CB
:102990004C4908804FF44870488050E04FF4A070D4
:1029A00048490880F02048800846808845F2105148
:1029B000884210D14FF43050424908814FF42850DA
:1029C00048814FF42C5088814FF4487008804FF4B0
:1029D000F070488020E03B48808841F663118842CF
:1029E00005D03848808849F6060188420DD12C2050
:1029F000344908812A2048812B2088814FF448706F
:102A000008804FF4F070488006E02C202D490881A2
:102A10002A2048812B2088812A48808845F210315D
:102A2000884205D02748808847F29671884206D1AF
:102A30004FF4F070234908804FF4A07048800020C4
:102A4000FFF779FD10BD2DE9F04104460D461E4605
:102A5000A018401E87B2A819401E1FFA80F8194816
:102A6000808841F6631188423CD11648807901285C
:102A700038D014480088801A001B84B2A819401E60
:102A800086B210494889FFF715FC2012FFF71BFC9E
:102A9000E0B2FFF718FCA118491EC1F30F20FFF7A1
:102AA00012FCA118491EC8B2FFF70DFC0549888920
:102AB000FFF700FC2812FFF706FCE8B2FFF703FC63
:102AC000301209E0300100203C0000208000006C42
:102AD0006666666666660440FFF7F5FBF0B2FFF7D0
:102AE000F2FB6EE0FE48808845F21051884246D1E4
:102AF000FB494889FFF7DEFB2012FFF7E4FBF849AA
:102B00004989491C88B2FFF7D5FBE0B2FFF7DBFB30
:102B1000F3494989891C88B2FFF7CCFB3812FFF7CB
:102B2000D2FBEF494989C91C88B2FFF7C3FBF8B251
:102B3000FFF7C9FBEA498889FFF7BCFB2812FFF7BA
:102B4000C2FBE7498989491C88B2FFF7B3FBE8B2A9
:102B5000FFF7B9FBE2498989891C88B2FFF7AAFB14
:102B60004FEA2820FFF7AFFBDD498989C91C88B2ED
:102B7000FFF7A0FB08F0FF00FFF7A5FB21E0D84915
:102B80004889FFF797FB2012FFF79DFBE0B2FFF7A4
:102B90009AFB3812FFF797FBF8B2FFF794FBD04986
:102BA0008889FFF787FB2812FFF78DFBE8B2FFF754
:102BB0008AFB4FEA2820FFF786FB08F0FF00FFF7AB
:102BC00082FBBDE8F08170B504460026C448058844
:102BD0004088454300210846FFF7B6FBFFF797FB07
:102BE00000BF02E0BF480480761CAE42FAD370BD3D
:102BF00000B5A1B00020209001217A2008F092F8C1
:102C00000121084608F0C6F84FF400401E9001204C
:102C10008DF87C0000208DF87E0002208DF87D006C
:102C200001208DF87F001EA9AF4807F0DDFD4CF2B2
:102C300033701E9002208DF87C0000208DF87E00FD
:102C400003208DF87D0001208DF87F001EA9A74884
:102C500007F0CAFD4FF680701E9002208DF87C00B0
:102C600000208DF87E0003208DF87D0001208DF876
:102C70007F001EA99E4807F0B7FD4FF480501E90BC
:102C800002208DF87C0000208DF87E0003208DF856
:102C90007D0001208DF87F001EA9964807F0A4FD55
:102CA0004FF480501E9002208DF87C0000208DF89B
:102CB0007E0003208DF87D0001208DF87F001EA985
:102CC0008D4807F091FD0C220021884807F017FE7F
:102CD0000C220121854807F012FE0C2204218348B2
:102CE00007F00DFE0C220521804807F008FE0C229B
:102CF00008217E4807F003FE0C2209217B4807F0DB
:102D0000FEFD0C220A21794807F0F9FD0C220E2164
:102D1000764807F0F4FD0C220F21744807F0EFFD10
:102D20000C220721724807F0EAFD0C2208217048A6
:102D300007F0E5FD0C2209216D4807F0E0FD0C22AB
:102D40000A216B4807F0DBFD0C220B21684807F0D5
:102D5000D6FD0C221146664807F0D1FD0C220D214C
:102D6000634807F0CCFD0C220E21614807F0C7FD37
:102D70000C220F215E4807F0C2FD0C2211465D486F
:102D800007F0BDFD0C2211465B4807F0B8FD0F208F
:102D90000890002009903C200A9000200B900C9095
:102DA0000D900E90092001900020029008200390C1
:102DB0000020049005900690079006200F900020B8
:102DC00010901190102012900020139015901490E4
:102DD000169017904FF480501890002019904FF4DF
:102DE00080401A9000201B9008A81C9001A81D90FC
:102DF0000FA807F0AAF90121062007F031FA3220C6
:102E000008F08FFDD320FFF755FAFFF766FA344933
:102E10008880FFF762FA32498880FFF75EFA30490E
:102E20008880084680884FF6FF7101EA00202C490F
:102E30008880FFF752FA2A49898808432849888000
:102E40000846808849F2413188427DD00420FFF74E
:102E500031FAFFF742FA22498880FFF73EFA20490B
:102E60008880FFF73AFA1E498880084680884FF626
:102E7000FF7101EA00201A498880FFF72EFA1849ED
:102E800089880843164988800846808848F252514C
:102E9000884203D147F289701149888010488088A0
:102EA00047F289718842D0D0D420FFF703FAFFF7A8
:102EB00014FA0B498880FFF710FA09498880FFF758
:102EC0000CFA07498880084680884FF6FF7101EAAE
:102ED000002003498880FFF700FA014989880DE046
:102EE000300100208000006C00040240000C024011
:102EF0000010024000140240001802400843FE493E
:102F000088800846808845F2103188429DD0D320C1
:102F1000FFF7D0F9FFF7E1F9F7498880FFF7DDF90E
:102F2000F5498880FFF7D9F9F349888008468088F9
:102F30004FF6FF7101EA0020EF498880FFF7CDF9D5
:102F4000ED498988084300E095E0EB498880084610
:102F5000808847F296718842A5D055214FF4704081
:102F6000FFF7C3F9AA214FF20100FFF7BEF9522182
:102F70004FF20200FFF7B9F908214FF20300FFF703
:102F8000B4F901214FF20400FFF7AFF94FF44540C7
:102F9000FFF790F9FFF7A1F9D749888008468088A4
:102FA0004FF6FF7101EA0020D34988804CF20150AE
:102FB000FFF780F9FFF791F9CF4989880843CE4997
:102FC0008880052008F0ADFCCB488088B0F5004F24
:102FD00003D145F21050C8498880C748808845F21F
:102FE0001051884247D0D320FFF764F9FFF775F9F5
:102FF000C1498880FFF771F9BF498880FFF76DF9F3
:10300000BD498880084680884FF6FF7101EA00209C
:10301000B9498880FFF761F9B74989880843B649FB
:1030200088800846808849F60601884223D0A1207E
:10303000FFF740F9FFF751F9AF498880FFF74DF9E5
:10304000AD498880084680884FF6FF7101EA00206C
:10305000A9498880FFF741F9A74989880843A6490B
:1030600088800846808845F26171884203D141F624
:103070006310A1498880A048808849F24131884284
:1030800023D09D48808847F2897188421DD09A4894
:10309000808845F21031884217D09748808845F2E1
:1030A0001051884211D09448808841F663118842BB
:1030B0000BD09148808847F29671884205D08E489F
:1030C000808849F6060188422CD18C48006820F09F
:1030D0000F004FF02041C1F81C010846D0F81C0138
:1030E00020F47060C1F81C010846D0F81C0140F0C3
:1030F0000400C1F81C018048808847F28971884229
:1031000008D17E48006840F480604FF02041C1F84B
:103110001C0107E07948006840F480604FF02041CE
:10312000C1F81C017448818875A009F019FD724826
:10313000808849F2413188427ED1CF20FFF7BAF82A
:103140000020FFF7C0F8C120FFF7BDF83020FFF7DF
:10315000BAF8ED20FFF7AEF86420FFF7B4F80320CB
:10316000FFF7B1F81220FFF7AEF88120FFF7ABF8B8
:10317000E820FFF79FF88520FFF7A5F81020FFF75C
:10318000A2F87A20FFF79FF8CB20FFF793F83920B9
:10319000FFF799F82C20FFF796F80020FFF793F837
:1031A0003420FFF790F80220FFF78DF8F720FFF7A3
:1031B00081F82020FFF787F8EA20FFF77BF800204E
:1031C000FFF781F80020FFF77EF8C020FFF772F8C4
:1031D0001B20FFF778F8C120FFF76CF80120FFF7FC
:1031E00072F8C520FFF766F83020FFF76CF8302042
:1031F000FFF769F8C720FFF75DF8B720FFF763F81E
:103200003620FFF757F84820FFF75DF83A20FFF720
:1032100051F85520FFF757F8B120FFF74BF8002081
:10322000FFF751F81A20FFF74EF8B620FFF742F8E3
:103230000A20FFF748F800E0A4E0A220FFF743F8D7
:10324000F220FFF737F80020FFF73DF82620FFF7C0
:1032500031F80120FFF737F8E020FFF72BF80F20B7
:10326000FFF731F82A20FFF72EF82820FFF72BF878
:103270000820FFF728F80E20FFF725F80820FFF7B1
:1032800022F85420FFF71FF8A920FFF71CF843206D
:10329000FFF719F80A20FFF716F80F20FFF713F8C9
:1032A0000020FFF710F80020FFF70DF80020FFF7CF
:1032B0000AF80020FFF707F8E120FEF7FBFF0020E7
:1032C000FFF701F81520FEF7FEFF1720FEF7FBFFC2
:1032D0000720FEF7F8FF1120FEF7F5FF0620FEF7A6
:1032E000F2FF2B20FEF7EFFF5620FEF7ECFF3C200D
:1032F000FEF7E9FF05200BE0300100201C0100A0D3
:10330000204C43442049443A25780D0A000000002F
:10331000FEF7D9FF1020FEF7D6FF0F20FEF7D3FFF0
:103320003F20FEF7D0FF3F20FEF7CDFF0F20FEF736
:10333000CAFF2B20FEF7BEFF0020FEF7C4FF0020CF
:10334000FEF7C1FF0120FEF7BEFF3F20FEF7BBFFE7
:103350002A20FEF7AFFF0020FEF7B5FF0020FEF7A2
:10336000B2FF0020FEF7AFFFEF20FEF7ACFF112009
:10337000FEF7A0FF782008F0D4FA2920FEF79AFF84
:1033800002F03ABBFE48808847F2897188427CD1BE
:103390001120FEF78FFF782008F0C3FA3620FEF7E1
:1033A00089FF0020FEF78FFF3A20FEF783FF0520FC
:1033B000FEF789FFB220FEF77DFF0C20FEF783FFAA
:1033C0000C20FEF780FF0020FEF77DFF3320FEF784
:1033D0007AFF3320FEF777FFB720FEF76BFF35202B
:1033E000FEF771FFBB20FEF765FF3220FEF76BFF93
:1033F000C020FEF75FFF0C20FEF765FFC220FEF73E
:1034000059FF0120FEF75FFFC320FEF753FF102096
:10341000FEF759FFC420FEF74DFF2020FEF753FFB3
:10342000C620FEF747FF0F20FEF74DFFD020FEF726
:1034300041FFA420FEF747FFA120FEF744FFE02054
:10344000FEF738FFD020FEF73EFF0020FEF73BFFDF
:103450000220FEF738FF0720FEF735FF0A20FEF7AF
:1034600032FF2820FEF72FFF3220FEF72CFF4420EA
:10347000FEF729FF4220FEF726FF0620FEF723FF76
:103480000E20FEF720FF122000E056E0FEF71BFFA3
:103490001420FEF718FF1720FEF715FFE120FEF7B6
:1034A00009FFD020FEF70FFF0020FEF70CFF0220DF
:1034B000FEF709FF0720FEF706FF0A20FEF703FFCD
:1034C0002820FEF700FF3120FEF7FDFE5420FEF716
:1034D000FAFE4720FEF7F7FE0E20FEF7F4FE1C2052
:1034E000FEF7F1FE1720FEF7EEFE1B20FEF7EBFEC7
:1034F0001E20FEF7E8FE2A20FEF7DCFE0020FEF785
:10350000E2FE0020FEF7DFFE0020FEF7DCFEEF20EB
:10351000FEF7D9FE2B20FEF7CDFE0020FEF7D3FEEE
:103520000020FEF7D0FE0120FEF7CDFE3F20FEF783
:10353000CAFE2920FEF7BEFE22E79148808845F2A8
:103540001031884240F07C87ED20FEF7B3FE012069
:10355000FEF7B9FEFE20FEF7B6FEEE20FEF7AAFE4D
:10356000DE20FEF7B0FE2120FEF7ADFEF120FEF7D3
:10357000A1FE0120FEF7A7FEDF20FEF79BFE102034
:10358000FEF7A1FEC420FEF795FE8F20FEF79BFEFE
:10359000C620FEF78FFE0020FEF795FEE220FEF724
:1035A00092FEE220FEF78FFEE220FEF78CFEBF20A7
:1035B000FEF780FEAA20FEF786FEB020FEF77AFE18
:1035C0000D20FEF780FE0020FEF77DFE0D20FEF7A9
:1035D0007AFE0020FEF777FE1120FEF774FE002031
:1035E000FEF771FE1920FEF76EFE0020FEF76BFE5F
:1035F0002120FEF768FE0020FEF765FE2D20FEF775
:1036000062FE0020FEF75FFE3D20FEF75CFE00201C
:10361000FEF759FE5D20FEF756FE0020FEF753FE32
:103620005D20FEF750FE0020FEF74DFEB120FEF7B4
:1036300041FE8020FEF747FE0020FEF744FE8B206F
:10364000FEF741FE0020FEF73EFE9620FEF73BFE11
:103650000020FEF738FEB220FEF72CFE0020FEF719
:1036600032FE0020FEF72FFE0220FEF72CFE002087
:10367000FEF729FE0320FEF726FE0020FEF723FEBC
:10368000B320FEF717FE0020FEF71DFE0020FEF718
:103690001AFE0020FEF717FE0020FEF714FE0020A1
:1036A000FEF711FE0020FEF70EFE0020FEF70BFED7
:1036B0000020FEF708FE0020FEF705FE0020FEF7C2
:1036C00002FE0020FEF7FFFD0020FEF7FCFD0020BB
:1036D000FEF7F9FD0020FEF7F6FD0020FEF7F3FDF2
:1036E0000020FEF7F0FD0020FEF7EDFD0020FEF7C4
:1036F000EAFD0020FEF7E7FD0020FEF7E4FD0020D4
:10370000FEF7E1FD0020FEF7DEFD0020FEF7DBFD09
:103710000020FEF7D8FDB420FEF7CCFD8B20FEF78D
:10372000D2FD0020FEF7CFFD9620FEF7CCFD002055
:10373000FEF7C9FDA120FEF7C6FD0020FEF7C3FD80
:10374000B520FEF7B7FD0220FEF7BDFD0020FEF715
:10375000BAFD0320FEF7B7FD0020FEF7B4FD0420FC
:10376000FEF7B1FD0020FEF7AEFDB620FEF7A2FD8C
:103770000020FEF7A8FD0020FEF7A5FDB72001E020
:1037800030010020FEF796FD0020FEF79CFD002092
:10379000FEF799FD3F20FEF796FD0020FEF793FD12
:1037A0005E20FEF790FD0020FEF78DFD6420FEF701
:1037B0008AFD0020FEF787FD8C20FEF784FD0020A7
:1037C000FEF781FDAC20FEF77EFD0020FEF77BFDBD
:1037D000DC20FEF778FD0020FEF775FD7020FEF777
:1037E00072FD0020FEF76FFD9020FEF76CFD0020BB
:1037F000FEF769FDEB20FEF766FD0020FEF763FD96
:10380000DC20FEF760FD0020FEF75DFDB820FEF72E
:1038100051FD0020FEF757FD0020FEF754FD00206B
:10382000FEF751FD0020FEF74EFD0020FEF74BFD98
:103830000020FEF748FD0020FEF745FD0020FEF7C2
:1038400042FDBA20FEF736FD2420FEF73CFD0020A5
:10385000FEF739FD0020FEF736FD0020FEF733FDB0
:10386000C120FEF727FD2020FEF72DFD0020FEF7EA
:103870002AFD5420FEF727FD0020FEF724FDFF203F
:10388000FEF721FD0020FEF71EFDC220FEF712FD0F
:103890000A20FEF718FD0020FEF715FD0420FEF7B4
:1038A00012FD0020FEF70FFDC320FEF703FD3C20B4
:1038B000FEF709FD0020FEF706FD3A20FEF703FDA6
:1038C0000020FEF700FD3920FEF7FDFC0020FEF78A
:1038D000FAFC3720FEF7F7FC0020FEF7F4FC3C2052
:1038E000FEF7F1FC0020FEF7EEFC3620FEF7EBFCC5
:1038F0000020FEF7E8FC3220FEF7E5FC0020FEF792
:10390000E2FC2F20FEF7DFFC0020FEF7DCFC2C2081
:10391000FEF7D9FC0020FEF7D6FC2920FEF7D3FCE9
:103920000020FEF7D0FC2620FEF7CDFC0020FEF79D
:10393000CAFC2420FEF7C7FC0020FEF7C4FC2420AC
:10394000FEF7C1FC0020FEF7BEFC2320FEF7BBFC07
:103950000020FEF7B8FC3C20FEF7B5FC0020FEF787
:10396000B2FC3620FEF7AFFC0020FEF7ACFC3220A4
:10397000FEF7A9FC0020FEF7A6FC2F20FEF7A3FC13
:103980000020FEF7A0FC2C20FEF79DFC0020FEF797
:103990009AFC2920FEF797FC0020FEF794FC2620D5
:1039A000FEF791FC0020FEF78EFC2420FEF78BFC36
:1039B0000020FEF788FC2420FEF785FC0020FEF79F
:1039C00082FC2320FEF77FFC0020FEF77CFCC42055
:1039D000FEF770FC6220FEF776FC0020FEF773FC19
:1039E0000520FEF770FC0020FEF76DFC8420FEF73A
:1039F0006AFC0020FEF767FCF020FEF764FC002064
:103A0000FEF761FC1820FEF75EFC0020FEF75BFC71
:103A1000A420FEF758FC0020FEF755FC1820FEF706
:103A200052FC0020FEF74FFC5020FEF74CFC00201B
:103A3000FEF749FC0C20FEF746FC0020FEF743FC95
:103A40001720FEF740FC0020FEF73DFC9520FEF716
:103A50003AFC0020FEF737FCF320FEF734FC002090
:103A6000FEF731FCE620FEF72EFC0020FEF72BFCD3
:103A7000C520FEF71FFC3220FEF725FC0020FEF7D4
:103A800022FC4420FEF71FFC0020FEF71CFC6520F2
:103A9000FEF719FC0020FEF716FC7620FEF713FC5B
:103AA0000020FEF710FC8820FEF70DFC0020FEF73A
:103AB0000AFCC620FEF7FEFB2020FEF704FC0020D7
:103AC000FEF701FC1720FEF7FEFB0020FEF7FBFBD4
:103AD0000120FEF7F8FB0020FEF7F5FBC720FEF7FC
:103AE000E9FB0020FEF7EFFB0020FEF7ECFB0020D7
:103AF000FEF7E9FB0020FEF7E6FBC820FEF7DAFB45
:103B00000020FEF7E0FB0020FEF7DDFB0020FEF7C3
:103B1000DAFB0020FEF7D7FBC920FEF7CBFB002025
:103B2000FEF7D1FB0020FEF7CEFB0020FEF7CBFB1B
:103B30000020FEF7C8FB0020FEF7C5FB0020FEF7C3
:103B4000C2FB0020FEF7BFFB0020FEF7BCFB0020FD
:103B5000FEF7B9FB0020FEF7B6FB0020FEF7B3FB33
:103B60000020FEF7B0FB0020FEF7ADFB0020FEF7C3
:103B7000AAFB0020FEF7A7FB0020FEF7A4FBE02035
:103B8000FEF798FB1620FEF79EFB0020FEF79BFB3E
:103B90001C20FEF798FB0020FEF795FB2120FEF786
:103BA00092FB0020FEF78FFB3620FEF78CFB0020F7
:103BB000FEF789FB4620FEF786FB0020FEF783FB1D
:103BC0005220FEF780FB0020FEF77DFB6420FEF70D
:103BD0007AFB0020FEF777FB7A20FEF774FB0020CB
:103BE000FEF771FB8B20FEF76EFB0020FEF76BFBF0
:103BF0009920FEF768FB0020FEF765FBA820FEF782
:103C000062FB0020FEF75FFBB920FEF75CFB0020A3
:103C1000FEF759FBC420FEF756FB0020FEF753FBCE
:103C2000CA20FEF750FB0020FEF74DFBD220FEF726
:103C30004AFB0020FEF747FBD920FEF744FB00209B
:103C4000FEF741FBE020FEF73EFB0020FEF73BFBCA
:103C5000F320FEF738FB0020FEF735FBE120FEF7EE
:103C600029FB1620FEF72FFB0020FEF72CFB1C2063
:103C7000FEF729FB0020FEF726FB2220FEF723FBA0
:103C80000020FEF720FB3620FEF71DFB0020FEF78C
:103C90001AFB4520FEF717FB0020FEF714FB52200D
:103CA000FEF711FB0020FEF70EFB6420FEF70BFB76
:103CB0000020FEF708FB7A20FEF705FB0020FEF748
:103CC00002FB8B20FEF7FFFA0020FEF7FCFA99209A
:103CD000FEF7F9FA0020FEF7F6FAA820FEF7F3FA4D
:103CE0000020FEF7F0FAB920FEF7EDFA0020FEF70B
:103CF000EAFAC420FEF7E7FA0020FEF7E4FACA2049
:103D0000FEF7E1FA0020FEF7DEFAD220FEF7DBFA3A
:103D10000020FEF7D8FAD820FEF7D5FA0020FEF7EB
:103D2000D2FAE020FEF7CFFA0020FEF7CCFAF3201B
:103D3000FEF7C9FA0020FEF7C6FAE220FEF7BAFA4B
:103D40000520FEF7C0FA0020FEF7BDFA0B20FEF7B3
:103D5000BAFA0020FEF7B7FA1B20FEF7B4FA0020EB
:103D6000FEF7B1FA3420FEF7AEFA0020FEF7ABFA08
:103D70004420FEF7A8FA0020FEF7A5FA4F20FEF730
:103D8000A2FA0020FEF79FFA6120FEF79CFA0020BD
:103D9000FEF799FA7920FEF796FA0020FEF793FADB
:103DA0008820FEF790FA0020FEF78DFA9720FEF7A4
:103DB0008AFA0020FEF787FAA620FEF784FA002090
:103DC000FEF781FAB720FEF77EFA0020FEF77BFAB5
:103DD000C220FEF778FA0020FEF775FAC720FEF73A
:103DE00072FA0020FEF76FFAD120FEF76CFA00207D
:103DF000FEF769FAD620FEF766FA0020FEF763FAAE
:103E0000DD20FEF760FA0020FEF75DFAF320FEF7F2
:103E10005AFA0020FEF757FAE320FEF74BFA052086
:103E2000FEF751FA0020FEF74EFA0A20FEF74BFA91
:103E30000020FEF748FA1C20FEF745FA0020FEF7A6
:103E400042FA3320FEF73FFA0020FEF73CFA442006
:103E5000FEF739FA0020FEF736FA5020FEF733FA63
:103E60000020FEF730FA6220FEF72DFA0020FEF760
:103E70002AFA7820FEF727FA0020FEF724FA882095
:103E8000FEF721FA0020FEF71EFA9720FEF71BFA34
:103E90000020FEF718FAA620FEF715FA0020FEF71C
:103EA00012FAB720FEF70FFA0020FEF70CFAC22034
:103EB000FEF709FA0020FEF706FAC720FEF703FA1C
:103EC0000020FEF700FAD120FEF7FDF90020FEF7F2
:103ED000FAF9D520FEF7F7F90020FEF7F4F9DD2016
:103EE000FEF7F1F90020FEF7EEF9F320FEF7EBF90B
:103EF0000020FEF7E8F9E420FEF7DCF90120FEF7E8
:103F0000E2F90020FEF7DFF90120FEF7DCF90020DE
:103F1000FEF7D9F90220FEF7D6F90020FEF7D3F913
:103F20002A20FEF7D0F90020FEF7CDF93C20FEF75D
:103F3000CAF90020FEF7C7F94B20FEF7C4F90020AC
:103F4000FEF7C1F95D20FEF7BEF90020FEF7BBF9D0
:103F50007420FEF7B8F90020FEF7B5F98420FEF7CB
:103F6000B2F90020FEF7AFF99320FEF7ACF900207C
:103F7000FEF7A9F9A220FEF7A6F90020FEF7A3F9A3
:103F8000B320FEF7A0F90020FEF79DF9BE20FEF752
:103F90009AF90020FEF797F9C420FEF794F9002063
:103FA000FEF791F9CD20FEF78EF90020FEF78BF990
:103FB000D320FEF788F90020FEF785F9DD20FEF713
:103FC00082F90020FEF77FF9F320FEF77CF900204C
:103FD000FEF779F9E520FEF76DF90020FEF773F999
:103FE0000020FEF770F90020FEF76DF90020FEF7C3
:103FF0006AF90220FEF767F90020FEF764F929202C
:10400000FEF761F90020FEF75EF93C20FEF75BF950
:104010000020FEF758F94B20FEF755F90020FEF777
:1040200052F95D20FEF74FF90020FEF74CF974209D
:10403000FEF749F90020FEF746F98420FEF743F920
:104040000020FEF740F99320FEF73DF90020FEF72F
:104050003AF9A220FEF737F90020FEF734F9B32031
:10406000FEF731F90020FEF72EF9BE20FEF72BF9FE
:104070000020FEF728F9C420FEF725F90020FEF7FE
:1040800022F9CD20FEF71FF90020FEF71CF9D320FE
:10409000FEF719F90020FEF716F9DC20FEF713F9F8
:1040A0000020FEF710F9F320FEF70DF90020FEF7CF
:1040B0000AF9E620FEF7FEF81120FEF704F90020C9
:1040C000FEF701F93420FEF7FEF80020FEF7FBF8BA
:1040D0005620FEF7F8F80020FEF7F5F87620FEF7F8
:1040E000F2F80020FEF7EFF87720FEF7ECF800205A
:1040F000FEF7E9F86620FEF7E6F80020FEF7E3F8A1
:104100008820FEF7E0F80020FEF7DDF89920FEF7A2
:10411000DAF80020FEF7D7F8BB20FEF7D4F800202D
:10412000FEF7D1F89920FEF7CEF80020FEF7CBF885
:104130006620FEF7C8F80020FEF7C5F85520FEF708
:10414000C2F80020FEF7BFF85520FEF7BCF80020AB
:10415000FEF7B9F84520FEF7B6F80020FEF7B3F8F1
:104160004320FEF7B0F80020FEF7ADF84420FEF73C
:10417000AAF80020FEF7A7F8E720FEF79BF8322008
:10418000FEF7A1F80020FEF79EF85520FEF79BF8F9
:104190000020FEF798F87620FEF795F80020FEF74D
:1041A00092F86620FEF78FF80020FEF78CF8672063
:1041B000FEF789F80020FEF786F86720FEF783F8FF
:1041C0000020FEF780F88720FEF77DF80020FEF73C
:1041D0007AF89920FEF777F80020FEF774F8BB20F4
:1041E000FEF771F80020FEF76EF89920FEF76BF8E5
:1041F0000020FEF768F87720FEF765F80020FEF74C
:1042000062F84420FEF75FF80020FEF75CF85620C5
:10421000FEF759F80020FEF756F82320FEF753F872
:104220000020FEF750F83320FEF74DF80020FEF78F
:104230004AF84520FEF747F80020FEF744F8E8204A
:10424000FEF738F80020FEF73EF80020FEF73BF8B6
:104250009920FEF738F80020FEF735F88720FEF7A2
:1042600032F80020FEF72FF88820FEF72CF8002007
:10427000FEF729F87720FEF726F80020FEF723F84E
:104280006620FEF720F80020FEF71DF88820FEF7D4
:104290001AF80020FEF717F8AA20FEF714F80020FD
:1042A000FEF711F8BB20FEF70EF80020FEF70BF822
:1042B0009920FEF708F80020FEF705F86620FEF7C3
:1042C00002F80020FDF7FFFF5520FDF7FCFF00205E
:1042D000FDF7F9FF5520FDF7F6FF0020FDF7F3FF8E
:1042E0004420FDF7F0FF0020FDF7EDFF4420FDF72F
:1042F000EAFF0020FDF7E7FF5520FDF7E4FF00206F
:10430000FDF7E1FFE920FDF7D5FFAA20FDF7DBFF70
:104310000020FDF7D8FF0020FDF7D5FF0020FDF7B6
:10432000D2FF0020FDF7C6FFAA20FDF7CCFFCF206B
:10433000FDF7C0FF0020FDF7C6FF0020FDF7C3FF1B
:104340000020FDF7C0FF0020FDF7BDFF0020FDF7B6
:10435000BAFF0020FDF7B7FF0020FDF7B4FF0020F3
:10436000FDF7B1FF0020FDF7AEFF0020FDF7ABFF2A
:104370000020FDF7A8FF0020FDF7A5FF0020FDF7B6
:10438000A2FF0020FDF79FFF0020FDF79CFF00200B
:10439000FDF799FF0020FDF796FFF020FDF78AFF5B
:1043A0000020FDF790FF5020FDF78DFF0020FDF766
:1043B0008AFF0020FDF787FF0020FDF784FFF32030
:1043C000FDF778FF0020FDF77EFFF920FDF772FF73
:1043D0000620FDF778FF1020FDF775FF2920FDF777
:1043E00072FF0020FDF76FFF3A20FDF763FF5520B5
:1043F000FDF769FF1120FDF75DFF642007F091FADA
:104400002920FDF757FF3520FDF754FF0020FDF769
:104410005AFF5120FDF74EFFFF20FDF754FF5320B8
:10442000FDF748FF2C20FDF74EFF5520FDF742FF1A
:104430008220FDF748FF2C20FDF73CFF01F0DCBA9D
:10444000FE48808845F2105188427DD155214FF4B5
:104450007040FDF74AFFAA214FF20100FDF745FF2A
:1044600052214FF20200FDF740FF08214FF20300F6
:10447000FDF73BFF01214FF20400FDF736FF0D2150
:104480004FF43040FDF731FF0D214BF20100FDF7F5
:104490002CFF0D214BF20200FDF727FF34214FF4D2
:1044A0003640FDF722FF34214BF20160FDF71DFF7E
:1044B00034214BF20260FDF718FF0D214FF431401B
:1044C000FDF713FF0D214BF20110FDF70EFF0D213B
:1044D0004BF20210FDF709FF34214FF43740FDF78E
:1044E00004FF34214BF20170FDF7FFFE34214BF243
:1044F0000270FDF7FAFE00214FF43240FDF7F5FEA1
:1045000000214BF20120FDF7F0FE00214BF20220CA
:10451000FDF7EBFE24214FF43840FDF7E6FE2421A1
:104520004BF60100FDF7E1FE24214BF60200FDF7FA
:10453000DCFE01214FF43F40FDF7D7FE0F214FF481
:104540003340FDF7D2FE00E0FDE30F214BF20130D6
:10455000FDF7CBFE0F214BF20230FDF7C6FE3421F2
:104560004FF43940FDF7C1FE34214BF60110FDF741
:10457000BCFE34214BF60210FDF7B7FE08214FF4C4
:104580003540FDF7B2FE08214BF20150FDF7ADFEBC
:1045900008214BF20250FDF7A8FE03214FF44240E0
:1045A000FDF7A3FE24214FF43A40FDF79EFE24219F
:1045B0004BF60120FDF799FE24214BF60220FDF772
:1045C00094FE00214FF43C40FDF78FFE78214BF61E
:1045D0000140FDF78AFE00214BF60240FDF785FE03
:1045E00000214FF43D40FDF780FE78214BF601504D
:1045F000FDF77BFE00214BF60250FDF776FE002111
:104600004FF43E40FDF771FE64214BF60160FDF76B
:104610006CFE00214FF45140FDF767FE33214DF24F
:104620000110FDF762FE00214DF20210FDF75DFE64
:1046300034214DF20310FDF758FE00214DF2041015
:10464000FDF753FE3A214DF20510FDF74EFE002115
:104650004DF20610FDF749FE4A214DF20710FDF715
:1046600044FE00214DF20810FDF73FFE5C214DF2A3
:104670000910FDF73AFE00214DF20A10FDF735FE54
:1046800081214DF20B10FDF730FE00214DF20C1090
:10469000FDF72BFEA6214DF20D10FDF726FE0021A1
:1046A0004DF20E10FDF721FEE5214DF20F10FDF742
:1046B0001CFE01214DF21010FDF717FE13214DF2E3
:1046C0001110FDF712FE01214DF21210FDF70DFE43
:1046D00054214DF21310FDF708FE01214DF2141084
:1046E000FDF703FE82214DF21510FDF7FEFD0121BD
:1046F0004DF21610FDF7F9FDCA214DF21710FDF726
:10470000F4FD02214DF21810FDF7EFFD00214DF2EE
:104710001910FDF7EAFD02214DF21A10FDF7E5FD33
:1047200001214DF21B10FDF7E0FD02214DF21C109E
:10473000FDF7DBFD34214DF21D10FDF7D6FD022102
:104740004DF21E10FDF7D1FD67214DF21F10FDF750
:10475000CCFD02214DF22010FDF7C7FD84214DF262
:104760002110FDF7C2FD02214DF22210FDF7BDFD23
:10477000A4214DF22310FDF7B8FD02214DF22410C3
:10478000FDF7B3FDB7214DF22510FDF7AEFD022177
:104790004DF22610FDF7A9FDCF214DF22710FDF7B0
:1047A000A4FD02214DF22810FDF79FFDDE214DF200
:1047B0002910FDF79AFD02214DF22A10FDF795FD13
:1047C000F2214DF22B10FDF790FD02214DF22C103D
:1047D000FDF78BFDFE214DF22D10FDF786FD032127
:1047E0004DF22E10FDF781FD10214DF22F10FDF737
:1047F0007CFD03214DF23010FDF777FD33214DF2A2
:104800003110FDF772FD03214DF23210FDF76DFD01
:104810006D214DF23310FDF768FD00214FF4524039
:10482000FDF763FD33214DF20120FDF75EFD002110
:104830004DF20220FDF759FD342101E03001002046
:104840004DF20320FDF751FD00214DF20420FDF74C
:104850004CFD3A214DF20520FDF747FD00214DF2B8
:104860000620FDF742FD4A214DF20720FDF73DFDF0
:1048700000214DF20820FDF738FD5C214DF20920A2
:10488000FDF733FD00214DF20A20FDF72EFD8121B9
:104890004DF20B20FDF729FD00214DF20C20FDF714
:1048A00024FDA6214DF20D20FDF71FFD00214DF244
:1048B0000E20FDF71AFDE5214DF20F20FDF715FD45
:1048C00001214DF21020FDF710FD13214DF21120B2
:1048D000FDF70BFD01214DF21220FDF706FD5421DD
:1048E0004DF21320FDF701FD01214DF21420FDF7DB
:1048F000FCFC82214DF21520FDF7F7FC01214DF261
:104900001620FDF7F2FCCA214DF21720FDF7EDFC51
:1049100002214DF21820FDF7E8FC00214DF219208C
:10492000FDF7E3FC02214DF21A20FDF7DEFC012128
:104930004DF21B20FDF7D9FC02214DF21C20FDF7A2
:10494000D4FC34214DF21D20FDF7CFFC02214DF2A5
:104950001E20FDF7CAFC67214DF21F20FDF7C5FCA4
:1049600002214DF22020FDF7C0FC84214DF22120D0
:10497000FDF7BBFC02214DF22220FDF7B6FCA4217D
:104980004DF22320FDF7B1FC02214DF22420FDF76A
:10499000ACFCB7214DF22520FDF7A7FC02214DF21A
:1049A0002620FDF7A2FCCF214DF22720FDF79DFC2C
:1049B00002214DF22820FDF798FCDE214DF229203E
:1049C000FDF793FC02214DF22A20FDF78EFCF22127
:1049D0004DF22B20FDF789FC02214DF22C20FDF732
:1049E00084FCFE214DF22D20FDF77FFC03214DF2CA
:1049F0002E20FDF77AFC10214DF22F20FDF775FCDB
:104A000003214DF23020FDF770FC33214DF23120AF
:104A1000FDF76BFC03214DF23220FDF766FC6D21A2
:104A20004DF23320FDF761FC00214FF45340FDF7B8
:104A30005CFC33214DF20130FDF757FC00214DF2B3
:104A40000230FDF752FC34214DF20330FDF74DFCEE
:104A500000214DF20430FDF748FC3A214DF20530BB
:104A6000FDF743FC00214DF20630FDF73EFC4A21E4
:104A70004DF20730FDF739FC00214DF20830FDF70B
:104A800034FC5C214DF20930FDF72FFC00214DF282
:104A90000A30FDF72AFC81214DF20B30FDF725FC91
:104AA00000214DF20C30FDF720FCA6214DF20D3017
:104AB000FDF71BFC00214DF20E30FDF716FCE52141
:104AC0004DF20F30FDF711FC01214DF21030FDF7D2
:104AD0000CFC13214DF21130FDF707FC01214DF2C2
:104AE0001230FDF702FC54214DF21330FDF7FDFBAF
:104AF00001214DF21430FDF7F8FB82214DF2153003
:104B0000FDF7F3FB01214DF21630FDF7EEFBCA2154
:104B10004DF21730FDF7E9FB02214DF21830FDF799
:104B2000E4FB00214DF21930FDF7DFFB02214DF2CD
:104B30001A30FDF7DAFB01214DF21B30FDF7D5FBF2
:104B400002214DF21C30FDF7D0FB34214DF21D3017
:104B5000FDF7CBFB02214DF21E30FDF7C6FB6721AE
:104B60004DF21F30FDF7C1FB02214DF22030FDF761
:104B7000BCFB84214DF22130FDF7B7FB02214DF241
:104B80002230FDF7B2FBA4214DF22330FDF7ADFB3F
:104B900002214DF22430FDF7A8FBB7214DF225305C
:104BA000FDF7A3FB02214DF22630FDF79EFBCF213E
:104BB0004DF22730FDF799FB02214DF22830FDF729
:104BC00094FBDE214DF22930FDF78FFB02214DF2DF
:104BD0002A30FDF78AFBF2214DF22B30FDF785FBE1
:104BE00002214DF22C30FDF780FBFE214DF22D30DD
:104BF000FDF77BFB03214DF22E30FDF776FB1021F4
:104C00004DF22F30FDF771FB03214DF23030FDF7EF
:104C10006CFB33214DF23130FDF767FB03214DF280
:104C20003230FDF762FB6D214DF23330FDF75DFB55
:104C300000214FF45440FDF758FB33214DF2014061
:104C4000FDF753FB00214DF20240FDF74EFB3421EE
:104C50004DF20340FDF749FB00214DF20440FDF702
:104C600044FB3A214DF20540FDF73FFB00214DF298
:104C70000640FDF73AFB4A214DF20740FDF735FBB0
:104C800000214DF20840FDF730FB5C214DF2094058
:104C9000FDF72BFB00214DF20A40FDF726FB812199
:104CA0004DF20B40FDF721FB00214DF20C40FDF7CA
:104CB0001CFBA6214DF20D40FDF717FB00214DF224
:104CC0000E40FDF712FBE5214DF20F40FDF70DFB05
:104CD00001214DF21040FDF708FB13214DF2114068
:104CE000FDF703FB01214DF21240FDF7FEFA5421BE
:104CF0004DF21340FDF7F9FA01214DF21440FDF792
:104D0000F4FA82214DF21540FDF7EFFA01214DF240
:104D10001640FDF7EAFACA214DF21740FDF7E5FA11
:104D200002214DF21840FDF7E0FA00214DF2194042
:104D3000FDF7DBFA02214DF21A40FDF7D6FA012108
:104D40004DF21B4000E005E3FDF7CFFA02214DF2E2
:104D50001C40FDF7CAFA34214DF21D40FDF7C5FA9B
:104D600002214DF21E40FDF7C0FA67214DF21F40AF
:104D7000FDF7BBFA02214DF22040FDF7B6FA84217F
:104D80004DF22140FDF7B1FA02214DF22240FDF72C
:104D9000ACFAA4214DF22340FDF7A7FA02214DF20F
:104DA0002440FDF7A2FAB7214DF22540FDF79DFA08
:104DB00002214DF22640FDF798FACF214DF227400F
:104DC000FDF793FA02214DF22840FDF78EFADE211D
:104DD0004DF22940FDF789FA02214DF22A40FDF7F4
:104DE00084FAF2214DF22B40FDF77FFA02214DF2B9
:104DF0002C40FDF77AFAFE214DF22D40FDF775FAB1
:104E000003214DF22E40FDF770FA10214DF22F4094
:104E1000FDF76BFA03214DF23040FDF766FA3321BE
:104E20004DF23140FDF761FA03214DF23240FDF7BA
:104E30005CFA6D214DF23340FDF757FA00214FF433
:104E40005540FDF752FA33214DF20150FDF74DFA6E
:104E500000214DF20250FDF748FA34214DF2035083
:104E6000FDF743FA00214DF20450FDF73EFA3A21D6
:104E70004DF20550FDF739FA00214DF20650FDF7CD
:104E800034FA4A214DF20750FDF72FFA00214DF276
:104E90000850FDF72AFA5C214DF20950FDF725FA7A
:104EA00000214DF20A50FDF720FA81214DF20B50FE
:104EB000FDF71BFA00214DF20C50FDF716FAA62162
:104EC0004DF20D50FDF711FA00214DF20E50FDF795
:104ED0000CFAE5214DF20F50FDF707FA01214DF2D2
:104EE0001050FDF702FA13214DF21150FDF7FDF9B4
:104EF00001214DF21250FDF7F8F954214DF21350F3
:104F0000FDF7F3F901214DF21450FDF7EEF982217E
:104F10004DF21550FDF7E9F901214DF21650FDF75C
:104F2000E4F9CA214DF21750FDF7DFF902214DF2E5
:104F30001850FDF7DAF900214DF21950FDF7D5F9B7
:104F400002214DF21A50FDF7D0F901214DF21B500C
:104F5000FDF7CBF902214DF21C50FDF7C6F93421C3
:104F60004DF21D50FDF7C1F902214DF21E50FDF723
:104F7000BCF967214DF21F50FDF7B7F902214DF240
:104F80002050FDF7B2F984214DF22150FDF7ADF923
:104F900002214DF22250FDF7A8F9A4214DF2235031
:104FA000FDF7A3F902214DF22450FDF79EF9B72138
:104FB0004DF22550FDF799F902214DF22650FDF7EB
:104FC00094F9CF214DF22750FDF78FF902214DF2D0
:104FD0002850FDF78AF9DE214DF22950FDF785F9B9
:104FE00002214DF22A50FDF780F9F2214DF22B50AB
:104FF000FDF77BF902214DF22C50FDF776F9FE21E9
:105000004DF22D50FDF771F903214DF22E50FDF7B1
:105010006CF910214DF22F50FDF767F903214DF285
:105020003050FDF762F933214DF23150FDF75DF953
:1050300003214DF23250FDF758F96D214DF23350F6
:10504000FDF753F900214FF45640FDF74EF9332197
:105050004DF20160FDF749F900214DF20260FDF7C4
:1050600044F934214DF20360FDF73FF900214DF280
:105070000460FDF73AF93A214DF20560FDF735F984
:1050800000214DF20660FDF730F94A214DF207602C
:10509000FDF72BF900214DF20860FDF726F95C21A0
:1050A0004DF20960FDF721F900214DF20A60FDF78C
:1050B0001CF981214DF20B60FDF717F900214DF22B
:1050C0000C60FDF712F9A6214DF20D60FDF70DF908
:1050D00000214DF20E60FDF708F9E5214DF20F6059
:1050E000FDF703F901214DF21060FDF7FEF81321E1
:1050F0004DF21160FDF7F9F801214DF21260FDF754
:10510000F4F854214DF21360FDF7EFF801214DF250
:105110001460FDF7EAF882214DF21560FDF7E5F81D
:1051200001214DF21660FDF7E0F8CA214DF217603B
:10513000FDF7DBF802214DF21860FDF7D6F80021EB
:105140004DF21960FDF7D1F802214DF21A60FDF71A
:10515000CCF801214DF21B60FDF7C7F802214DF29A
:105160001C60FDF7C2F834214DF21D60FDF7BDF85B
:1051700002214DF21E60FDF7B8F867214DF21F6065
:10518000FDF7B3F802214DF22060FDF7AEF884215F
:105190004DF22160FDF7A9F802214DF22260FDF7E2
:1051A000A4F8A4214DF22360FDF79FF802214DF2EF
:1051B0002460FDF79AF8B7214DF22560FDF795F8C8
:1051C00002214DF22660FDF790F8CF214DF22760C5
:1051D000FDF78BF802214DF22860FDF786F8DE21FD
:1051E0004DF22960FDF781F802214DF22A60FDF7AA
:1051F0007CF8F2214DF22B60FDF777F802214DF299
:105200002C60FDF772F8FE214DF22D60FDF76DF870
:1052100003214DF22E60FDF768F810214DF22F604A
:10522000FDF763F803214DF23060FDF75EF833219E
:105230004DF23160FDF759F803214DF23260FDF770
:1052400054F86D214DF23360FDF74FF855214FF4BE
:105250007040FDF74AF8AA214FF20100FDF745F82A
:1052600052214FF20200FDF740F808214FF20300EF
:10527000FDF73BF800214FF20400FDF736F8CC2192
:105280004FF43140FDF731F800214BF20110FDF7EA
:105290002CF805214FF43640FDF727F870214FF424
:1052A0003740FDF722F870214BF20170FDF71DF831
:1052B00001214FF43840FDF718F803214BF60100A7
:1052C000FDF713F803214BF60200FDF70EF803215A
:1052D0004BF60300FDF709F802214FF43C40FDF7BF
:1052E00004F800214BF60140FCF7FFFF00214BF6CC
:1052F0000240FCF7FAFFD0214FF44940FCF7F5FFDC
:1053000002214CF60110FCF7F0FF50214CF6021080
:10531000FCF7EBFF50214CF60310FCF7E6FF5021A1
:105320004CF60410FCF7E1FF00214FF45450FCF759
:10533000DCFF55214FF46850FCF7D7FF4FF488503D
:10534000FCF7B8FF782006F0DFFA4FF42450FCF7A2
:10535000B1FF51E3FE48808847F2967188427CD1C4
:105360001120FCF7A7FF782006F0DBFA3620FCF7C7
:10537000A1FF4820FCF7A7FF3A20FCF79BFF552030
:10538000FCF7A1FFF020FCF795FFC320FCF79BFF83
:10539000F020FCF78FFF9620FCF795FFB420FCF778
:1053A00089FF0120FCF78FFFB620FCF783FF0A205E
:1053B000FCF789FFA220FCF786FFB720FCF77AFFF5
:1053C000C620FCF780FFB920FCF774FF0220FCF731
:1053D0007AFFE020FCF777FFC020FCF76BFF80200E
:1053E000FCF771FF1620FCF76EFFC120FCF762FF8F
:1053F0001920FCF768FFC220FCF75CFFA720FCF730
:1054000062FFC520FCF756FF1620FCF75CFFE82082
:10541000FCF750FF4020FCF756FF8A20FCF753FFB3
:105420000020FCF750FF0020FCF74DFF2920FCF77F
:105430004AFF1920FCF747FFA520FCF744FF332063
:10544000FCF741FFE020FCF735FFF020FCF73BFFC5
:105450000720FCF738FF0D2000E065E0FCF733FF84
:105460000420FCF730FF0520FCF72DFF1420FCF78B
:105470002AFF3620FCF727FF5420FCF724FF4C209E
:10548000FCF721FF3820FCF71EFF1320FCF71BFF61
:105490001420FCF718FF2E20FCF715FF3420FCF732
:1054A00012FFE120FCF706FFF020FCF70CFF1020B4
:1054B000FCF709FF1420FCF706FF0E20FCF703FFA2
:1054C0000C20FCF700FF0820FCF7FDFE3520FCF760
:1054D000FAFE4420FCF7F7FE4C20FCF7F4FE2620F1
:1054E000FCF7F1FE1020FCF7EEFE1220FCF7EBFEBD
:1054F0002C20FCF7E8FE3220FCF7E5FEF020FCF75C
:10550000D9FE3C20FCF7DFFEF020FCF7D3FE69203B
:10551000FCF7D9FE782006F004FA2120FCF7CAFE39
:105520002920FCF7C7FE67E28948808849F6060112
:1055300088427CD1FF20FCF7BDFEFF20FCF7C3FEB4
:105540009820FCF7C0FE0620FCF7BDFEBC20FCF74F
:10555000B1FE0120FCF7B7FE0F20FCF7B4FE61207E
:10556000FCF7B1FEFF20FCF7AEFE0120FCF7ABFE1E
:105570000120FCF7A8FE0B20FCF7A5FE1020FCF78D
:10558000A2FE3720FCF79FFE6320FCF79CFEFF2065
:10559000FCF799FEFF20FCF796FE0120FCF793FE36
:1055A0000120FCF790FE0020FCF78DFE0020FCF7A8
:1055B0008AFEFF20FCF787FE5220FCF784FE0120C4
:1055C000FCF781FE0020FCF77EFE4020FCF77BFE0E
:1055D000BD20FCF76FFE0120FCF775FE2320FCF7D1
:1055E00072FE4520FCF76FFE6720FCF76CFE012081
:1055F000FCF769FE2320FCF766FE4520FCF763FEFE
:105600006720FCF760FEBE20FCF754FE0020FCF78C
:105610005AFE0120FCF757FEAB20FCF754FE602039
:10562000FCF751FE2220FCF74EFE222000E025E18F
:10563000FCF749FE2220FCF746FE2220FCF743FE41
:105640002220FCF740FEC720FCF734FE3620FCF792
:105650003AFEED20FCF72EFE7F20FCF734FE0F20F3
:10566000FCF731FEC020FCF725FE0F20FCF72BFED7
:105670000B20FCF728FE0A20FCF725FEFC20FCF797
:1056800019FE0820FCF71FFEDF20FCF713FE0020A8
:10569000FCF719FE0020FCF716FE0020FCF713FEB5
:1056A0000020FCF710FE0020FCF70DFE2020FCF788
:1056B0000AFEF320FCF7FEFD7420FCF704FEB42084
:1056C000FCF7F8FD0020FCF7FEFD0020FCF7FBFDD9
:1056D0000020FCF7F8FDF720FCF7ECFD8220FCF73A
:1056E000F2FDB120FCF7E6FD0020FCF7ECFD1320F5
:1056F000FCF7E9FD1320FCF7E6FDF220FCF7DAFDEC
:105700008020FCF7E0FD0420FCF7DDFD4020FCF7E5
:10571000DAFD2820FCF7D7FDC120FCF7CBFD1720D0
:10572000FCF7D1FD8820FCF7CEFD8820FCF7CBFDEF
:105730002020FCF7C8FDE020FCF7BCFD0020FCF7B2
:10574000C2FD0A20FCF7BFFD1220FCF7BCFD01E002
:10575000300100201020FCF7B6FD0E20FCF7B3FD51
:105760002020FCF7B0FDCC20FCF7ADFD0720FCF7B6
:10577000AAFD0620FCF7A7FD0B20FCF7A4FD0E20D8
:10578000FCF7A1FD0F20FCF79EFD0D20FCF79BFD13
:105790001520FCF798FD1020FCF795FD0020FCF784
:1057A00092FDE120FCF786FD0020FCF78CFD0B202C
:1057B000FCF789FD1320FCF786FD0D20FCF783FD27
:1057C0000E20FCF780FD1B20FCF77DFD7120FCF70F
:1057D0007AFD0620FCF777FD0620FCF774FD0A2011
:1057E000FCF771FD0F20FCF76EFD0E20FCF76BFD42
:1057F0000F20FCF768FD1520FCF765FD0C20FCF779
:1058000062FD0020FCF75FFD2A20FCF753FD00201D
:10581000FCF759FD0020FCF756FD0120FCF753FD75
:10582000DF20FCF750FD2B20FCF744FD0020FCF7A7
:105830004AFD0020FCF747FD0320FCF744FD1F2034
:10584000FCF741FD3A20FCF735FD5520FCF73BFD08
:105850003620FCF72FFD0020FCF735FD1120FCF76A
:1058600029FD782006F05DF82920FCF723FD14209F
:1058700006F057F82C20FCF71DFDBDE0FE4880889F
:1058800041F663118842F8D1E220FCF713FD1D2098
:10589000FCF719FD0220FCF716FD0420FCF713FDB0
:1058A000642006F031F8E020FCF704FD0120FCF74D
:1058B0000AFD0A2006F035F8E020FCF7FBFC032087
:1058C000FCF701FD0C2006F02CF80120FCF7F2FC9F
:1058D0000A2006F026F8E620FCF7ECFC2F20FCF767
:1058E000F2FCFF20FCF7EFFCFF20FCF7ECFCB02003
:1058F000FCF7E0FC2020FCF7E6FC0020FCF7E3FCD2
:105900000320FCF7E0FC40F21F30FCF7DCFC012038
:10591000FCF7D9FC40F2DF10FCF7D5FC0020FCF7C7
:10592000D2FCB420FCF7C6FC0420FCF7CCFC40F20F
:105930001F40FCF7C8FC0020FCF7C5FC2E20FCF73C
:10594000C2FC0020FCF7BFFC0020FCF7BCFC0020E0
:10595000FCF7B9FC0020FCF7B6FCB620FCF7AAFC6B
:105960000220FCF7B0FC4FF40370FCF7ACFC002005
:10597000FCF7A9FC1720FCF7A6FC1520FCF7A3FCFC
:105980000020FCF7A0FC0020FCF79DFCF020FCF7B9
:1059900091FC0320FCF797FC2920FCF78BFCD0201E
:1059A000FCF788FC0020FCF78EFCBE20FCF782FC94
:1059B0000520FCF788FCFE20FCF785FC0120FCF7A5
:1059C00082FC0020FCF77FFC0020FCF77CFC002020
:1059D000FCF779FCB820FCF76DFC0320FCF773FCA6
:1059E0000120FCF770FCBA20FCF764FC0120FCF7F6
:1059F0006AFC6420FCF747FF0020FCF770FF0120E1
:105A00009E4908604FF6FF70FDF7DDF821B000BD3C
:105A10002DE9F04F05460E4617469846DDF824A0BE
:105A20004FF0000B781B401C1FFA80FB344614E03B
:105A300021462846FCF788FCFCF769FC4FF000097A
:105A400007E04FF0D840A0F880A009F101001FFA4C
:105A500080F9D945F5DB601C84B24445E8DDBDE83A
:105A6000F08F2DE9F84F07460D4690469946DDF830
:105A700028B0A8EB0700401C1FFA80FAA9EB05002C
:105A8000401C80B20090002414E0281981B23846EE
:105A9000FCF75AFCFCF73BFC002607E004FB0A601D
:105AA0003BF8100076490880701C86B25645F5DB3D
:105AB000601C84B200988442E7DBBDE8F88F2DE9D2
:105AC000FF4F84B081468A460020039002900698DA
:105AD000A0EB09050798A0EB0A06CDF80490CDF8D5
